S017000041697220436F6E646974696F6E65722E7372656353
S11300000C9446000C9463000C9463000C946300FD
S11300100C9463000C9459080C9463000C946300D2
S11300200C9463000C9429080C9463000C94F90755
S11300300C9463000C9463000C9463000C946300B0
S11300400C9463000C9463000C9463000C946300A0
S11300500C946300360941094C095C0A57095C0A8F
S113006062096D09780983099909A409AF095E0A2F
S1130070BA095E0AC509D009DB09E609FC09070AC1
S1130080120A1D0A280A330A3E0A490A11241FBE0D
S1130090CFE5D8E0DEBFCDBF10E0A0E6B0E0E2E8F7
S11300A0F8E102C005900D92AA3FB107D9F721E00B
S11300B0AAEFB0E001C01D92AA33B207E1F70E9493
S11300C075060C943F0C0C9400008091FB008F5F2C
S11300D08093FB0082E091E00E9463060895EF9212
S11300E0FF920F931F93CF93DF93E2E0F1E0D1E00F
S11300F0D083D48388E090EF9383828385E690E075
S113010096838583C7E0C183CF010E943106EFEF58
S1130110F0E0C283D083D183CF010E948405E5E15E
S1130120F1E01082118612861386D4871586C2E008
S1130130C68717860F2EF3E0EF2EF02DE08A118A82
S11301406894FF24F2F8F28A138A05E0048B158A76
S113015016E0168BCF010E940C04ECE2F1E0C6839A
S1130160E782C087F186C2870387C4871587C08367
S11301701182C283D383C483C583CF010E94D20278
S1130180EDEFF0E0D1831082CF010E949902DF915C
S1130190CF911F910F91FF90EF9008950E94A704B3
S11301A061E081E00E94AD041092FB008CE690E0D7
S11301B00E9426058091FB008330E0F30E94A7048F
S11301C061E081E00E94AD0484E790E00E9426058E
S11301D061E082E00E94AD041092FB008EEC90E09E
S11301E00E9426058091FB008330E0F384E1809334
S11301F0FA0081E08093FC0008951F93CF93DF936E
S1130200CDB7DEB727970FB6F894DEBF0FBECDBFCC
S11302108CE790E09A83898380E290E09C838B83CF
S11302201D820E94A70461E081E00E94AD04109247
S1130230FB0084E890E00E9426058091FB00823058
S1130240E0F30E94A70461E081E00E94AD0485E927
S113025090E00E9426056BE081E00E94AD048CE9E9
S113026090E00E94260513E10AC06EEE610F82E061
S11302700E94AD04CE0101960E9426051F5F809165
S1130280FA00811790F78091FA004AE0BE016A5F94
S11302907F4F90E00E940A0C68E081E00E94AD0468
S11302A0CE0106960E942605CE0105960E940F03F4
S11302B08D81813389F46091FA00633220F781E003
S11302C0860F8093FA00615182E00E94AD04CE0152
S11302D001960E942605D7CF823389F46091FA00F3
S11302E0633188F28FEF860F8093FA00625182E0C7
S11302F00E94AD04CE0103960E942605C4CF833329
S113030011F682E08093FC0027960FB6F894DEBFC6
S11303100FBECDBFDF91CF911F910895CF93DF938F
S113032000D01F92CDB7DEB720E329831A821B8247
S11303300E94B10A6A3028F4605D698380E28A838E
S113034016C086EF860F8A3590F48DEC689F812D58
S1130350112486958695869590E3980F9983880F46
S1130360982F990F990F890F681B605D6A83CE01DE
S113037001960E9426050F900F900F90DF91CF9168
S11303800895CF93DF931F92CDB7DEB719820E94F1
S1130390A70461E081E00E94AD0483EA90E00E943A
S11303A02605A1C060E670E08FEF90E00E94A705EB
S11303B020E030E040E85EE360916000709161000D
S11303C080916200909163000E946F0B60936000C3
S11303D070936100809362009093630062E082E016
S11303E00E94AD0460916000709161008091620090
S11303F0909163000E948E016091FA0070E080E0A9
S113040090E00E94E20A20916000309161004091E6
S11304106200509163000E94AC0A882334F483E0A4
S11304200E9440050E94B40208C061E082E00E947C
S1130430AD0481EB90E00E942605CE0101960E9456
S11304400F038981853331F08E3409F44CC0843331
S113045041F521C00E94C30284E18093FA000E9406
S1130460A70461E081E00E94AD0483EB90E00E9468
S1130470260561E082E00E94AD041092FB0081EC4D
S113048090E00E9426058091FB008330E0F381E038
S11304908093FC0028C00E94C30281E08093FC008A
S11304A022C00E94A70461E081E00E94AD0481EDB6
S11304B090E00E94260561E082E00E94AD04109263
S11304C0FB0082EE90E00E9426058091FB008330C1
S11304D0E0F30E94A70461E081E00E94AD0483EA96
S11304E090E00E9426058091FC00823009F45ACFE6
S11304F00F90DF91CF9108950E946F00789482E06D
S113050091E00E94510602C00E94CE008091FC003E
S1130510811103C0F9CF0E94FD008091FC0081305D
S1130520D1F302C00E94C1018091FC008230D1F35A
S1130530EDCFCF93DF93009799F0EC01688141E010
S113054089810E94D90681110CC08981EAE0F1E019
S113055081838881808381E08093090180E001C0E8
S113056086E0DF91CF91089580910901882349F0B5
S1130570EAE0F1E0608141E081810E94130780E0BC
S1130580089586E0089580910901882349F0EAE0FE
S1130590F1E0608140E081810E94130780E00895CA
S11305A086E00895CF93DF930097A9F1EC01698168
S11305B040E088810E94D9066B8140E08A810E94D4
S11305C0D9066D8140E08C810E94D906698141E0A1
S11305D088810E9413076B8141E08A810E9413077E
S11305E06D8141E08C810E9413076F8141E08E810F
S11305F00E94D906698541E088850E94D9066B85E9
S113060041E08A850E94D9066D8541E08C850E946F
S1130610D90680E001C087E0DF91CF910895DF9291
S1130620EF92FF920F931F93CF93DF931F92CDB757
S1130630DEB77C010CE211E0F801678141E08681BC
S11306400E941307F801618541E080850E94130729
S1130650F801638541E082850E941307F8016585EE
S113066041E084850E94130700E0D12C42C0ECE2F3
S1130670F1E06781600F40E086810E94130710E07B
S11306802DC0ECE2F1E06181610FAE014F5F5F4F7D
S113069080810E948E07898181111FC00AC0ECE20B
S11306A0F1E06181610FAE014F5F5F4F80810E9475
S11306B08E078981882399F3802F90E0FC01EE0F47
S11306C0FF1FE80FF91FE251FF4FE10FF11D808179
S11306D0F7018083DD24D39403C01F5F133088F2B5
S11306E0ECE2F1E06781600F41E086810E9413072C
S11306F00F5F043008F4BBCFF1E0DF1619F08EE48D
S1130700F701808380E00F90DF91CF911F910F91CB
S1130710FF90EF90DF900895CF93DF93C5E1D1E090
S11307206E8941E08D890E94130782E08A95F1F772
S113073000C06E8940E08D890E941307DF91CF913C
S113074008951F93CF93DF93EC01162F6E8940E039
S11307508D890E9413076A8940E089890E941307E2
S11307606C8940E08B890E94130780910C018111F0
S11307704AC06889412F441F4427441F8F850E9423
S113078013076E8516FB442740F98D850E941307D5
S11307906C8515FB442740F98B850E9413076A85F5
S11307A014FB442740F989850E9413070E948C0397
S11307B08FE697E10197F1F700C00000688913FB09
S11307C0442740F98F850E9413076E8512FB442746
S11307D040F98D850E9413076C8511FB442740F96D
S11307E08B850E9413076A85412F417089850E9479
S11307F013070E948C038FE697E10197F1F700C07D
S1130800000080E005C0813011F480E001C085E083
S1130810DF91CF911F9108951F93CF93DF93EC0144
S11308206A8941E089890E94D906182F6C8941E0C0
S11308308B890E94D906182B6E8941E08D890E940C
S1130840D906182B8881882319F0813099F177C053
S113085062E085E191E00E94A10368E285E191E014
S11308600E94A1036CE085E191E00E94A10366E08F
S113087085E191E00E94A10361E085E191E00E949D
S1130880A1036A8541E089850E94D906182B6C85ED
S113089041E08B850E94D906182B6E8541E08D8539
S11308A00E94D906182B688941E08F850E94D906D9
S11308B0812B46C068E385E191E00E94A1036CE0CE
S11308C085E191E00E94A10366E085E191E00E9448
S11308D0A10361E085E191E00E94A1036A8141E006
S11308E089810E94D906182B6C8141E08B810E947A
S11308F0D906182B6E8141E08D810E94D906182BF0
S1130900688541E08F810E94D906182B6A8541E0F1
S113091089850E94D906182B6C8541E08B850E943D
S1130920D906182B6E8541E08D850E94D906182BB7
S1130930688941E08F850E94D906812B01C085E03A
S1130940988190930C01DF91CF911F91089561E0FC
S113095085E191E00E94A1030895813019F082306D
S113096041F00EC0615885E191E00E94A10380E04E
S11309700895615485E191E00E94A10380E0089507
S113098085E008951F93CF93DF93EC01162F6E89B2
S113099040E08D890E9413076A8941E089890E9499
S11309A013076C8940E08B890E94130780910C0126
S11309B0811148C06889412F441F4427441F8F85F3
S11309C00E9413076E8516FB442740F98D850E940B
S11309D013076C8515FB442740F98B850E94130788
S11309E06A8514FB442740F989850E9413070E94F5
S11309F08C038FE697E10197F1F700C00000688946
S1130A0013FB442740F98F850E9413076E8512FB60
S1130A10442740F98D850E9413076C8511FB4427F8
S1130A2040F98B850E9413076A85412F417089859F
S1130A300E9413070E948C038FE697E10197F1F758
S1130A4000C00000DF91CF911F9108950F931F9371
S1130A50CF93009781F08C01C0E005C085E191E05F
S1130A600E94C204CF5FF801EC0FF11D6081611197
S1130A70F5CF80E001C085E0CF911F910F910895DB
S1130A801F93CF93DF93CDB7DEB728970FB6F894B3
S1130A90DEBF0FBECDBF98E0E4E6F0E0DE011196C4
S1130AA001900D929A95E1F7682F70E0685F7F4F8F
S1130AB0660F660F660F85E191E00E94A10310E0C6
S1130AC00CC0E1E0F0E0EC0FFD1FE10FF11D6081CF
S1130AD085E191E00E94C2041F5F183090F360EC3E
S1130AE085E191E00E94A10363E085E191E00E9429
S1130AF0C20480E028960FB6F894DEBF0FBECDBFC7
S1130B00DF91CF911F910895CF93DF930097B9F0B0
S1130B10FC0122812830A8F421812830A0F4EC01C2
S1130B20EDE0F1E0218388818083CF010E947A0681
S1130B306A8140E080E00E94D90680E005C088E038
S1130B4003C088E001C088E0DF91CF9108958F92BF
S1130B509F92AF92BF92EF92FF921F93CF93DF9336
S1130B6000D0CDB7DEB71A8219826115710509F478
S1130B7064C0009709F463C0FC012281283008F0A6
S1130B8060C03181383008F05EC07B015C01BE0179
S1130B906F5F7F4F822F0E949106182F81110AC028
S1130BA0F5018081833051F0813099F0812C912CB2
S1130BB0540117C0812C912C540113C00F2EFAE05C
S1130BC08F2EF7ED9F2EF3E2AF2EFBE3BF2EF02D19
S1130BD008C00F2E812C912CF0EAAF2EFBE3BF2E20
S1130BE0F02D69817A8180E090E00E94E00A9B0107
S1130BF0AC01C501B4010E946F0B20E030E048EC69
S1130C0052E40E946F0B4B015C0120E030E046E1AE
S1130C1053E40E946A0B882354F080E090E0A6E13C
S1130C20B3E4F70180839183A283B3830DC0F701FA
S1130C3080829182A282B38207C018E005C018E0C6
S1130C4003C018E001C018E0812F0F900F90DF91CE
S1130C50CF911F91FF90EF90BF90AF909F908F9096
S1130C6008951F93CF93DF93009791F0FC012081A7
S1130C70233080F421812A3078F4EC010E94890821
S1130C80182F68818D819E810E948A0A812B05C05C
S1130C9083E003C083E001C083E0DF91CF911F9123
S1130CA00895009751F0FC012081233040F4218104
S1130CB02A3038F40E941609089583E0089583E0E9
S1130CC0089583E00895009751F0FC0120812330BA
S1130CD040F421812A3038F40E94620A089583E0A6
S1130CE0089583E0089583E008950E947C0280E0E3
S1130CF090E00895009799F0FC012181206826B9BD
S1130D0080818295880F880F807C87B981E090E08C
S1130D1001C001968A309105E4F380E0089584E0EF
S1130D2008950F931F93CF938830E0F561157105F3
S1130D30D9F18B01C82F4AB381E090E09C010C2EBD
S1130D4002C0220F331F0A94E2F7842F90E082231B
S1130D5093230C2E02C0969587950A94E2F7892B6B
S1130D6029F040E06C2F80E00E94D9063699FECF2E
S1130D7087B1887F8C2B87B986B1806486B98FE16F
S1130D809EE40197F1F700C00000349BFECF24B12C
S1130D9085B190E0982F8827822BF8019183808376
S1130DA080E003C084E001C084E0CF911F910F91E3
S1130DB008956830A0F581110BC08AB350E002C0D9
S1130DC0440F551F6A95E2F7482B4ABB80E008950B
S1130DD0813059F487B350E002C0440F551F6A951F
S1130DE0E2F7482B47BB80E00895823059F484B37E
S1130DF050E002C0440F551F6A95E2F7482B44BBEC
S1130E0080E00895833069F481B350E002C0440F58
S1130E10551F6A95E2F7482B41BB80E0089581E0B5
S1130E20089582E00895683008F074C081111BC0F1
S1130E30413061F42BB381E090E002C0880F991F28
S1130E406A95E2F7822B8BBB80E008952BB381E097
S1130E5090E002C0880F991F6A95E2F7809582237B
S1130E608BBB80E008958130D9F4413061F428B31C
S1130E7081E090E002C0880F991F6A95E2F7822B07
S1130E8088BB80E0089528B381E090E002C0880F19
S1130E90991F6A95E2F78095822388BB80E00895C4
S1130EA08230D9F4413061F425B381E090E002C08E
S1130EB0880F991F6A95E2F7822B85BB80E008951D
S1130EC025B381E090E002C0880F991F6A95E2F78C
S1130ED08095822385BB80E008958330E9F4413016
S1130EE061F422B381E090E002C0880F991F6A95F3
S1130EF0E2F7822B82BB80E0089522B381E090E088
S1130F0002C0880F991F6A95E2F78095822382BBFD
S1130F1080E0089581E0089582E00895683008F043
S1130F2064C0811117C079B381E090E09C01062E62
S1130F3002C0220F331F0A94E2F7872F90E0822326
S1130F40932302C0969587956A95E2F7FA01808308
S1130F5080E008958130B9F476B381E090E09C019B
S1130F60062E02C0220F331F0A94E2F7872F90E067
S1130F708223932302C0969587956A95E2F7FA0136
S1130F80808380E008958230B9F473B381E090E007
S1130F909C01062E02C0220F331F0A94E2F7872F0A
S1130FA090E08223932302C0969587956A95E2F791
S1130FB0FA01808380E008958330C9F470B381E03E
S1130FC090E09C01062E02C0220F331F0A94E2F720
S1130FD0872F90E08223932302C0969587956A9584
S1130FE0E2F7FA01808380E0089581E0089582E0C9
S1130FF008951F920F920FB60F9211242F933F93CF
S11310004F935F936F937F938F939F93AF93BF930C
S1131010EF93FF938091130190911401892B41F078
S113102088B78E7F88BFE0911301F0911401099570
S1131030FF91EF91BF91AF919F918F917F916F91AC
S11310405F914F913F912F910F900FBE0F901F9082
S113105018951F920F920FB60F9211242F933F935E
S11310604F935F936F937F938F939F93AF93BF93AC
S1131070EF93FF938091110190911201892B41F01C
S113108088B78B7F88BFE0911101F0911201099517
S1131090FF91EF91BF91AF919F918F917F916F914C
S11310A05F914F913F912F910F900FBE0F901F9022
S11310B018951F920F920FB60F9211242F933F93FE
S11310C04F935F936F937F938F939F93AF93BF934C
S11310D0EF93FF9380910F0190911001892B41F0C0
S11310E088B78F7B88BFE0910F01F09110010995BB
S11310F0FF91EF91BF91AF919F918F917F916F91EC
S11311005F914F913F912F910F900FBE0F901F90C1
S11311101895009709F47CC0FC012081233008F065
S113112079C031813A3008F077C0213019F120F0CC
S1131130223009F450C072C012BE13BE1CBEFC01A2
S1131140228122BF23B7206823BF23B72F7B23BF6D
S113115023B7277F23BF23B72F7E23BF23B72F7D3A
S113116023BF8481813009F05BC089B7816089BF66
S113117080E008951CBC1DBC1FBC1EBC1BBC1ABC5B
S1131180FC01228133813DBD2CBD2FB528602FBDCC
S11311902FB524602FBD2FB52E7F2FBD2FB52D7FEA
S11311A02FBD2EB52F7E2EBD2EB5277F2EBD2FB57C
S11311B02F7B2FBD2FB52F772FBD2FB52F7E2FBDA2
S11311C02FB52F7D2FBD8481813061F589B784606F
S11311D089BF80E0089514BC15BC13BCFC012281B6
S11311E024BD25B5206825BD25B52F7B25BD25B596
S11311F0277F25BD25B52F7E25BD25B52F7D25BD92
S11312008481813089F489B7806489BF80E008953E
S113121083E0089583E0089583E0089583E00895CA
S113122080E0089580E0089580E00895009709F42F
S11312303BC1DC012C91233008F038C11196EC91AC
S1131240EA3008F035C1213009F468C020F02230BA
S113125009F4C7C02FC18E2F90E08A30910508F0A1
S11312602BC1FC01E65DFF4F0C94040C83B78E7F09
S113127083BF83B78D7F83BF83B78B7F83BF80E0BA
S1131280089583B7816083BF83B78D7F83BF83B79E
S11312908B7F83BF80E0089583B78E7F83BF83B73E
S11312A0826083BF83B78B7F83BF80E0089583B759
S11312B0816083BF83B7826083BF83B78B7F83BF23
S11312C080E0089583B78E7F83BF83B78D7F83BF0C
S11312D083B7846083BF80E0089583B7816083BF50
S11312E083B78D7F83BF83B7846083BF80E0089515
S11312F083B78E7F83BF83B7826083BF83B78460E5
S113130083BF80E0089583B7816083BF83B7826021
S113131083BF83B7846083BF80E008958E2F90E0FD
S11313208A30910508F0CAC0FC01EC5CFF4F0C94B4
S1131330040C8EB58E7F8EBD8EB58D7F8EBD8EB521
S11313408B7F8EBD80E008958EB581608EBD8EB595
S11313508D7F8EBD8EB58B7F8EBD80E008958EB55A
S11313608E7F8EBD8EB582608EBD8EB58B7F8EBD19
S113137080E008958EB581608EBD8EB582608EBD8D
S11313808EB58B7F8EBD80E008958EB58E7F8EBD29
S11313908EB58D7F8EBD8EB584608EBD80E0089540
S11313A08EB581608EBD8EB58D7F8EBD8EB5846009
S11313B08EBD80E008958EB58E7F8EBD8EB5826021
S11313C08EBD8EB584608EBD80E008958EB581603B
S11313D08EBD8EB582608EBD8EB584608EBD80E07C
S11313E008958E2F90E08830910508F069C0FC01C3
S11313F0E25CFF4F0C94040C85B58B7F85BD85B5ED
S11314008D7F85BD85B58E7F85BD80E0089585B5CA
S1131410846085BD85B58D7F85BD85B58E7F85BD91
S113142080E0089585B58B7F85BD85B5826085BDD7
S113143085B58E7F85BD80E0089585B5846085BDC2
S113144085B5826085BD85B58E7F85BD80E00895B4
S113145085B58B7F85BD85B58D7F85BD85B581605F
S113146085BD80E0089585B5846085BD85B58D7F93
S113147085BD85B5816085BD80E0089585B58B7F88
S113148085BD85B5826085BD85B5816085BD80E0FB
S1131490089585B5846085BD85B5826085BD85B5B3
S11314A0816085BD80E0089583E0089583E0089518
S11314B083E0089583E0089583E0089583E0089528
S11314C083E008950097F1F0FC0120812330E0F4DB
S11314D031813A30D8F4213049F018F0223069F0E3
S11314E017C0FC01828182BF80E00895FC018281E3
S11314F093819DBD8CBD80E00895FC01828184BDF3
S113150080E0089583E0089583E0089583E00895DA
S113151083E008950097D1F06330D0F4613051F046
S113152018F0623069F016C090931401809313018F
S113153080E00895909312018093110180E0089552
S11315409093100180930F0180E0089583E0089543
S113155083E0089583E008950E941D0B08F481E060
S113156008950E94490B88F09F5798F0B92F992746
S1131570B751B0F0E1F0660F771F881F991F1AF07A
S1131580BA95C9F714C0B13091F00E94630BB1E071
S113159008950C94630B672F782F8827B85F39F070
S11315A0B93FCCF3869577956795B395D9F73EF413
S11315B090958095709561957F4F8F4F9F4F0895BB
S11315C0E89409C097FB3EF49095809570956195D9
S11315D07F4F8F4F9F4F9923A9F0F92F96E9BB278F
S11315E09395F695879577956795B795F111F8CF0B
S11315F0FAF4BB0F11F460FF1BC06F5F7F4F8F4F76
S11316009F4F16C0882311F096E911C0772321F06B
S11316109EE8872F762F05C0662371F096E8862F03
S113162070E060E02AF09A95660F771F881FDAF75A
S1131630880F9695879597F90895990F0008550F87
S1131640AA0BE0E8FEEF16161706E807F907C0F044
S113165012161306E407F50798F0621B730B840B4C
S1131660950B39F40A2661F0232B242B252B21F426
S113167008950A2609F4A140A6958FEF811D811DC6
S1131680089557FD9058440F551F59F05F3F71F06E
S11316904795880F97FB991F61F09F3F79F08795D5
S11316A00895121613061406551FF2CF4695F1DF5E
S11316B008C0161617061806991FF1CF86957105EE
S11316C0610508940895E894BB2766277727CB0122
S11316D097F908950E941D0B08F48FEF08950E9456
S11316E0820B0C94F30B0E94E50B38F00E94EC0B78
S11316F020F0952311F00C94DC0B0C94E20B1124D4
S11317000C94640B0E94410B70F3959FC1F3950FE9
S113171050E0551F629FF001729FBB27F00DB11D71
S1131720639FAA27F00DB11DAA1F649F6627B00D01
S1131730A11D661F829F2227B00DA11D621F739FEA
S1131740B00DA11D621F839FA00D611D221F749FF8
S11317503327A00D611D231F849F600D211D822F3F
S1131760762F6A2F11249F5750409AF0F1F0882366
S11317704AF0EE0FFF1FBB1F661F771F881F915093
S11317805040A9F79E3F510580F00C94DC0B0C945B
S1131790640B5F3FE4F3983ED4F3869577956795A1
S11317A0B795F795E7959F5FC1F7FE2B880F911DBD
S11317B09695879597F9089597F99F6780E870E063
S11317C060E008959FEF80EC089500240A941616B3
S11317D0170618060906089500240A94121613061B
S11317E0140605060895092E0394000C11F48823A9
S11317F052F0BB0F40F4BF2B11F460FF04C06F5FC5
S11318007F4F8F4F9F4F0895EE0FFF1F0590F49168
S1131810E02D0994BB274A3031F4992322F4BDE228
S1131820909581959F4F0C94160CBB27FB0155276F
S1131830AA27880F991FAA1FA41710F0A41B839529
S11318405051B9F7A05DAA3308F0A95DA1930097A0
S113185079F7B111B1931192CB010C942F0CDC01E7
S1131860FC01672F71917723E1F7329704C07C91D3
S11318706D9370836291AE17BF07C8F30895F8940F
S1051880FFCF94
S11318820000A041040E0E0E1F00040057656C6395
S11318926F6D650064656661756C742054656D7066
S11318A22069730053657420496E697469616C2000
S11318B254656D70004D696E3D3138004D61783D5F
S11318C233350043757272656E742054656D7020F1
S11318D23D200054656D702076616C7565206973D6
S11318E2007265736574746C656420746F203230A1
S11318F200746865206F7065726174696F6E206927
S113190273006E6F7420616C6C6F776564003132A2
S10D1912333435363738392A3023D0
S9030000FC
