:100000000C942A000C9447000C9447000C94470071
:100010000C9447000C9447000C9447000C94470044
:100020000C9447000C9447000C9447000C94470034
:100030000C9447000C9447000C9447000C94470024
:100040000C9447000C9447000C9447000C94470014
:100050000C94470011241FBECFE5D8E0DEBFCDBF12
:1000600010E0A0E6B0E0E2EAFCE002C005900D92EC
:10007000A83FB107D9F721E0A8EFB0E001C01D9279
:10008000A033B207E1F70E94F5040C944F060C94DC
:1000900000008091F9008F5F8093F90080E091E08B
:1000A0000E94F3040895EF92FF920F931F93CF9352
:1000B000DF93E0E0F1E01082D1E0D48380EF90E0C4
:1000C0009383828389E490E096838583CF010E94A5
:1000D000F104EDEFF0E087E08283D083D183CF019C
:1000E0000E94ED04EBE0F1E0108211861286138687
:1000F000D4871586C2E0C68717860F2EF3E0EF2E51
:10010000F02DE08A118A6894FF24F2F8F28A138AAB
:1001100005E0048B158A16E0168BCF010E9475034B
:10012000E2E2F1E0C683E782C087F186C2870387F7
:10013000C4871587C0831182C283D383C483C583D8
:10014000CF010E943B02EBEFF0E0D1831082CF01A0
:100150000E940202DF91CF911F910F91FF90EF90CB
:1001600008950E94100461E081E00E94160489E66F
:1001700090E00E948F041092F9002FEF89E698E139
:10018000215080409040E1F700C000000E94100420
:1001900061E081E00E94160481E790E00E948F04F4
:1001A00061E082E00E9416048BEC90E00E948F04D4
:1001B0001092F9002FEF89E698E12150804090409D
:1001C000E1F700C0000084E18093F80081E08093B3
:1001D000FA000895CF93DF9300D01F92CDB7DEB71A
:1001E00019820E94100461E081E00E94160481E8F7
:1001F00090E00E948F041092F9002FEF84E39CE0BE
:10020000215080409040E1F700C000000E9410049F
:1002100061E081E00E94160482E990E00E948F0470
:100220006BE081E00E94160489E990E00E948F044F
:100230008091F8004AE0BE016E5F7F4F90E00E941F
:100240001A0668E081E00E941604CE0102960E9420
:100250008F04CE0101960E9478028981813341F496
:100260008091F800833220F78F5F8093F800E0CF11
:10027000823341F48091F8008331D0F28150809331
:10028000F800D6CF8333A1F682E08093FA000F9076
:100290000F900F90DF91CF910895CF93DF9300D00F
:1002A0001F92CDB7DEB719820E94100461E081E091
:1002B0000E94160480EA90E00E948F0480C060E6ED
:1002C00070E08DEF90E00E94EF04809160004AE0C2
:1002D000BE016E5F7F4F90E00E941A0662E082E0EE
:1002E0000E941604CE0102960E948F049091600035
:1002F0008091F800891728F483E00E94A9040E94E5
:100300001D02CE0101960E9478028981853331F069
:100310008E3409F454C0843369F526C00E942C023F
:1003200084E18093F8000E94100461E081E00E9463
:10033000160480EB90E00E948F0461E082E00E944E
:1003400016048EEB90E00E948F041092F9002FEFBC
:1003500089E698E1215080409040E1F700C000001C
:1003600081E08093FA002BC00E942C0281E08093F0
:10037000FA0025C00E94100461E081E00E9416048A
:100380008EEC90E00E948F0461E082E00E941604EF
:100390008FED90E00E948F042FEF89E698E12150C5
:1003A00080409040E1F700C000000E94100461E02E
:1003B00081E00E94160480EA90E00E948F04809100
:1003C000FA00823009F47BCF0F900F900F90DF91ED
:1003D000CF9108950E94530002C00E94B100809105
:1003E000FA00811103C0F9CF0E94EA008091FA005F
:1003F0008130D1F302C00E944D018091FA00823019
:10040000D1F3EDCFCF93DF93009799F0EC016881A2
:1004100041E089810E94FA0481110CC08981E8E0E1
:10042000F1E081838881808381E08093070180E00F
:1004300001C086E0DF91CF91089580910701882364
:1004400049F0E8E0F1E0608141E081810E943405FB
:1004500080E0089586E0089580910701882349F09F
:10046000E8E0F1E0608140E081810E94340580E0B5
:10047000089586E00895CF93DF930097A9F1EC01EA
:10048000698140E088810E94FA046B8140E08A81A2
:100490000E94FA046D8140E08C810E94FA04698117
:1004A00041E088810E9434056B8141E08A810E948D
:1004B00034056D8141E08C810E9434056F8141E0FB
:1004C0008E810E94FA04698541E088850E94FA04C1
:1004D0006B8541E08A850E94FA046D8541E08C8538
:1004E0000E94FA0480E001C087E0DF91CF91089577
:1004F000DF92EF92FF920F931F93CF93DF931F92A0
:10050000CDB7DEB77C0102E211E0F801678141E07E
:1005100086810E943405F801618541E080850E9452
:100520003405F801638541E082850E943405F801B5
:10053000658541E084850E94340500E0D12C42C0ED
:10054000E2E2F1E06781600F40E086810E943405BD
:1005500010E02DC0E2E2F1E06181610FAE014F5F7A
:100560005F4F80810E94AF05898181111FC00AC041
:10057000E2E2F1E06181610FAE014F5F5F4F808188
:100580000E94AF058981882399F3802F90E0FC01B8
:10059000EE0FFF1FE80FF91FE551FF4FE10FF11DAF
:1005A0008081F7018083DD24D39403C01F5F133063
:1005B00088F2E2E2F1E06781600F41E086810E940B
:1005C00034050F5F043008F4BBCFF1E0DF1619F0FB
:1005D0008EE4F701808380E00F90DF91CF911F912F
:1005E0000F91FF90EF90DF900895CF93DF93CBE0D2
:1005F000D1E06E8941E08D890E94340582E08A95C0
:10060000F1F700C06E8940E08D890E943405DF91CA
:10061000CF9108951F93CF93DF93EC01162F6E892E
:1006200040E08D890E9434056A8940E089890E94F2
:1006300034056C8940E08B890E94340580910A0161
:1006400081114AC06889412F441F4427441F8F8568
:100650000E9434056E8516FB442740F98D850E9463
:1006600034056C8515FB442740F98B850E943405C1
:100670006A8514FB442740F989850E9434050E944D
:10068000F5028FE697E10197F1F700C00000688955
:1006900013FB442740F98F850E9434056E8512FBB9
:1006A000442740F98D850E9434056C8511FB442751
:1006B00040F98B850E9434056A85412F41708985F8
:1006C0000E9434050E94F5028FE697E10197F1F749
:1006D00000C0000080E005C0813011F480E001C05E
:1006E00085E0DF91CF911F9108951F93CF93DF9302
:1006F000EC016A8941E089890E94FA04182F6C890B
:1007000041E08B890E94FA04182B6E8941E08D89A3
:100710000E94FA04182B8881882319F0813099F1FE
:1007200077C062E08BE091E00E940A0368E28BE010
:1007300091E00E940A036CE08BE091E00E940A03C2
:1007400066E08BE091E00E940A0361E08BE091E0BB
:100750000E940A036A8541E089850E94FA04182BE9
:100760006C8541E08B850E94FA04182B6E8541E070
:100770008D850E94FA04182B688941E08F850E94BC
:10078000FA04812B46C068E38BE091E00E940A03E3
:100790006CE08BE091E00E940A0366E08BE091E060
:1007A0000E940A0361E08BE091E00E940A036A81E3
:1007B00041E089810E94FA04182B6C8141E08B8111
:1007C0000E94FA04182B6E8141E08D810E94FA0488
:1007D000182B688541E08F810E94FA04182B6A85E6
:1007E00041E089850E94FA04182B6C8541E08B85D5
:1007F0000E94FA04182B6E8541E08D850E94FA0450
:10080000182B688941E08F850E94FA04812B01C072
:1008100085E0988190930A01DF91CF911F9108950F
:1008200061E08BE091E00E940A030895813019F0A5
:10083000823041F00EC061588BE091E00E940A03C3
:1008400080E0089561548BE091E00E940A0380E00B
:10085000089585E008951F93CF93DF93EC01162F41
:100860006E8940E08D890E9434056A8941E089895A
:100870000E9434056C8940E08B890E943405809188
:100880000A01811148C06889412F441F4427441F31
:100890008F850E9434056E8516FB442740F98D85AF
:1008A0000E9434056C8515FB442740F98B850E9416
:1008B00034056A8514FB442740F989850E94340574
:1008C0000E94F5028FE697E10197F1F700C0000062
:1008D000688913FB442740F98F850E9434056E8593
:1008E00012FB442740F98D850E9434056C8511FB6D
:1008F000442740F98B850E9434056A85412F417059
:1009000089850E9434050E94F5028FE697E10197E0
:10091000F1F700C00000DF91CF911F9108950F9370
:100920001F93CF93009781F08C01C0E005C08BE04E
:1009300091E00E942B04CF5FF801EC0FF11D608164
:100940006111F5CF80E001C085E0CF911F910F913B
:1009500008951F93CF93DF93CDB7DEB728970FB6D7
:10096000F894DEBF0FBECDBF98E0E1E6F0E0DE0117
:10097000119601900D929A95E1F7682F70E0685FEB
:100980007F4F660F660F660F8BE091E00E940A03AF
:1009900010E00CC0E1E0F0E0EC0FFD1FE10FF11DF5
:1009A00060818BE091E00E942B041F5F183090F370
:1009B00060EC8BE091E00E940A0363E08BE091E041
:1009C0000E942B0480E028960FB6F894DEBF0FBE7D
:1009D000CDBFDF91CF911F91089580E0089580E011
:1009E000089580E0089580E008950E94EA0180E083
:1009F00090E008956830A0F581110BC08AB350E0F3
:100A000002C0440F551F6A95E2F7482B4ABB80E0AD
:100A10000895813059F487B350E002C0440F551F48
:100A20006A95E2F7482B47BB80E00895823059F47D
:100A300084B350E002C0440F551F6A95E2F7482B7B
:100A400044BB80E00895833069F481B350E002C074
:100A5000440F551F6A95E2F7482B41BB80E008958B
:100A600081E0089582E00895683008F074C0811133
:100A70001BC0413061F42BB381E090E002C0880FCD
:100A8000991F6A95E2F7822B8BBB80E008952BB308
:100A900081E090E002C0880F991F6A95E2F7809587
:100AA00082238BBB80E008958130D9F4413061F41A
:100AB00028B381E090E002C0880F991F6A95E2F7A1
:100AC000822B88BB80E0089528B381E090E002C0CB
:100AD000880F991F6A95E2F78095822388BB80E092
:100AE00008958230D9F4413061F425B381E090E07B
:100AF00002C0880F991F6A95E2F7822B85BB80E0C0
:100B0000089525B381E090E002C0880F991F6A958F
:100B1000E2F78095822385BB80E008958330E9F475
:100B2000413061F422B381E090E002C0880F991F48
:100B30006A95E2F7822B82BB80E0089522B381E0C0
:100B400090E002C0880F991F6A95E2F78095822392
:100B500082BB80E0089581E0089582E008956830C6
:100B600008F064C0811117C079B381E090E09C0166
:100B7000062E02C0220F331F0A94E2F7872F90E05F
:100B80008223932302C0969587956A95E2F7FA012E
:100B9000808380E008958130B9F476B381E090E0FD
:100BA0009C01062E02C0220F331F0A94E2F7872F02
:100BB00090E08223932302C0969587956A95E2F789
:100BC000FA01808380E008958230B9F473B381E044
:100BD00090E09C01062E02C0220F331F0A94E2F718
:100BE000872F90E08223932302C0969587956A957C
:100BF000E2F7FA01808380E008958330C9F470B38E
:100C000081E090E09C01062E02C0220F331F0A945F
:100C1000E2F7872F90E08223932302C09695879571
:100C20006A95E2F7FA01808380E0089581E00895F3
:100C300082E00895BB274A3031F4992322F4BDE2C3
:100C4000909581959F4F0C942606BB27FB01552755
:100C5000AA27880F991FAA1FA41710F0A41B839519
:100C60005051B9F7A05DAA3308F0A95DA193009790
:100C700079F7B111B1931192CB010C943F06DC01CD
:100C8000FC01672F71917723E1F7329704C07C91C3
:100C90006D9370836291AE17BF07C8F30895F894FF
:020CA000FFCF84
:100CA20014040E0E0E1F00040057656C636F6D6511
:100CB2000064656661756C742054656D702069739B
:100CC2000053657420496E697469616C2054656DC6
:100CD20070004D696E3D3138004D61783D3335000D
:100CE20043757272656E742054656D70203D2000EC
:100CF20054656D702076616C75652069730072654C
:100D0200736574746C656420746F2032300074688B
:100D120065206F7065726174696F6E206973006E11
:100D22006F7420616C6C6F776564003132333435D7
:080D3200363738392A3023005E
:00000001FF
