S017000041697220436F6E646974696F6E65722E7372656353
S11300000C9446000C9463000C9463000C946300FD
S11300100C9463000C9473030C9463000C946300BD
S11300200C9463000C9443030C9463000C9413032A
S11300300C9463000C9463000C9463000C946300B0
S11300400C9463000C9463000C9463000C946300A0
S11300500C9463004F045A04650475057004750517
S11300607B04860491049C04B204BD04C80477058F
S1130070D3047705DE04E904F404FF041505200520
S11300802B05360541054C055705620511241FBE95
S1130090CFE5D8E0DEBFCDBF10E0A0E6B0E0E2EAF5
S11300A0FBE002C005900D92A036B107D9F720E01D
S11300B0A0E6B0E001C01D92AC39B207E1F70E949E
S11300C05B020C94CF050C940000809160008F5F5C
S11300D08093600086E690E00E94490208951F9391
S11300E0CF93DF93E6E6F0E01082148280EF90E095
S11300F09383828385E690E096838583CF010E9473
S1130100170286E690E00E943702E3E6F0E087E01B
S11301108283D1E0D083D183CF010E941602E7E726
S1130120F0E01082118612861386D4871586C2E009
S1130130C687178613E0108BCF010E948E01EEE86C
S1130140F0E0C6831783C08784E08187C28785E097
S11301508387C48786E08587C0831182C283D38363
S1130160C483C583CF010E94DB00E1E6F0E0D183C4
S11301701082CF010E94C000DF91CF911F9108959A
S1130180CF93DF93009799F0EC01688141E0898176
S11301900E945E0281110CC08981EEE6F0E0818349
S11301A08881808381E080936D0080E001C086E0D7
S11301B0DF91CF910895CF93DF930097A9F1EC01DC
S11301C0698140E088810E945E026B8140E08A81FF
S11301D00E945E026D8140E08C810E945E02698112
S11301E041E088810E9498026B8141E08A810E94EB
S11301F098026D8141E08C810E9498026F8141E0F8
S11302008E810E945E02698541E088850E945E02BB
S11302106B8541E08A850E945E026D8541E08C8594
S11302200E945E0280E001C087E0DF91CF910895D3
S1130230CF93DF93C7E7D0E06E8941E08D890E94B8
S1130240980200006E8940E08D890E949802DF9137
S1130250CF9108951F93CF93DF93EC01162F6E89EE
S113026040E08D890E9498026A8940E089890E9451
S113027098026C8940E08B890E94980280917000FA
S1130280811148C06889412F441F4427441F8F852A
S11302900E9498026E8516FB442740F98D850E94C2
S11302A098026C8515FB442740F98B850E949802BF
S11302B06A8514FB442740F989850E9498020E94AC
S11302C018018DEE92E00197F1F700C000006889F3
S11302D013FB442740F98F850E9498026E8512FB18
S11302E0442740F98D850E9498026C8511FB4427B0
S11302F040F98B850E9498026A85412F4170898557
S11303000E9498020E9418018DEE92E00197F1F785
S113031000C00000DF91CF911F910895CF93DF9328
S1130320EC016A8941E089890E945E026C8941E09E
S11303308B890E945E026E8941E08D890E945E0273
S11303408881882319F0813079F16AC062E087E7F7
S113035090E00E942A0168E287E790E00E942A0167
S11303606CE087E790E00E942A0166E087E790E06E
S11303700E942A0161E087E790E00E942A016A85D1
S113038041E089850E945E026C8541E08B850E9474
S11303905E026E8541E08D850E945E02688941E0BF
S11303A08F850E945E023CC068E387E790E00E946C
S11303B02A016CE087E790E00E942A0166E087E763
S11303C090E00E942A0161E087E790E00E942A0100
S11303D06A8141E089810E945E026C8141E08B81E7
S11303E00E945E026E8141E08D810E945E026885FA
S11303F041E08F810E945E026A8541E089850E9406
S11304005E026C8541E08B850E945E026E8541E050
S11304108D850E945E02688941E08F850E945E029C
S1130420888180937000DF91CF91089508951F9380
S1130430CF93DF93009791F0FC012081233080F467
S113044021812A3078F4EC010E94A303182F6881DB
S11304508D819E810E94A705812B05C083E003C086
S113046083E001C083E0DF91CF911F91089500974D
S113047051F0FC012081233040F421812A3038F4EA
S11304800E942F04089583E0089583E0089583E093
S11304900895009751F0FC012081233040F421811C
S11304A02A3038F40E947B05089583E0089583E0A0
S11304B0089583E008950E946F00FFCF6830A0F58F
S11304C081110BC08AB350E002C0440F551F6A95D6
S11304D0E2F7482B4ABB80E00895813059F487B392
S11304E050E002C0440F551F6A95E2F7482B47BB02
S11304F080E00895823059F484B350E002C0440F80
S1130500551F6A95E2F7482B44BB80E00895833079
S113051069F481B350E002C0440F551F6A95E2F7B5
S1130520482B41BB80E0089581E0089582E008955E
S1130530683008F074C081111BC0413061F42BB3E2
S113054081E090E002C0880F991F6A95E2F7822B40
S11305508BBB80E008952BB381E090E002C0880F4C
S1130560991F6A95E2F7809582238BBB80E00895FA
S11305708130D9F4413061F428B381E090E002C0C5
S1130580880F991F6A95E2F7822B88BB80E0089553
S113059028B381E090E002C0880F991F6A95E2F7C2
S11305A08095822388BB80E008958230D9F441305D
S11305B061F425B381E090E002C0880F991F6A9529
S11305C0E2F7822B85BB80E0089525B381E090E0BB
S11305D002C0880F991F6A95E2F78095822385BB34
S11305E080E008958330E9F4413061F422B381E07E
S11305F090E002C0880F991F6A95E2F7822B82BBB4
S113060080E0089522B381E090E002C0880F991F32
S11306106A95E2F78095822382BB80E0089581E0A9
S1130620089582E008951F920F920FB60F9211243D
S11306302F933F934F935F936F937F938F939F93E6
S1130640AF93BF93EF93FF938091750090917600E1
S1130650892B41F088B78E7F88BFE0917500F091B7
S113066076000995FF91EF91BF91AF919F918F9182
S11306707F916F915F914F913F912F910F900FBE9A
S11306800F901F9018951F920F920FB60F9211247E
S11306902F933F934F935F936F937F938F939F9386
S11306A0AF93BF93EF93FF93809173009091740085
S11306B0892B41F088B78B7F88BFE0917300F0915C
S11306C074000995FF91EF91BF91AF919F918F9124
S11306D07F916F915F914F913F912F910F900FBE3A
S11306E00F901F9018951F920F920FB60F9211241E
S11306F02F933F934F935F936F937F938F939F9326
S1130700AF93BF93EF93FF93809171009091720028
S1130710892B41F088B78F7B88BFE0917100F091FD
S113072072000995FF91EF91BF91AF919F918F91C5
S11307307F916F915F914F913F912F910F900FBED9
S11307400F901F901895009709F47BC0FC0120813D
S1130750233008F078C031813A3008F076C0213077
S113076011F120F0223009F44FC071C012BE13BE43
S11307701CBEFC01228122BF23B7206823BF23B7FC
S11307802F7B23BF23B7277F23BF23B72F7E23BF0E
S113079023B72F7D23BF848181115BC089B781601A
S11307A089BF80E008951CBC1DBC1FBC1EBC1BBCC3
S11307B01ABCFC01228133813DBD2CBD2FB52860BC
S11307C02FBD2FB524602FBD2FB52E7F2FBD2FB584
S11307D02D7F2FBD2EB52F7E2EBD2EB5277F2EBD8E
S11307E02FB52F7B2FBD2FB52F772FBD2FB52F7E84
S11307F02FBD2FB52F7D2FBD848181112CC089B7CA
S1130800846089BF80E0089514BC15BC13BCFC014E
S1130810228124BD25B5206825BD25B52F7B25BDA6
S113082025B5277F25BD25B52F7E25BD25B52F7D73
S113083025BD8481811111C089B7806489BF80E09E
S1130840089583E0089583E0089583E0089583E0A4
S1130850089580E0089580E0089580E00895009769
S113086009F43BC1DC012C91233008F038C1119606
S1130870EC91EA3008F035C1213009F468C020F069
S1130880223009F4C7C02FC18E2F90E08A30910521
S113089008F02BC1FC01E65DFF4F0C94C90583B73A
S11308A08E7F83BF83B78D7F83BF83B78B7F83BFE7
S11308B080E0089583B7816083BF83B78D7F83BF52
S11308C083B78B7F83BF80E0089583B78E7F83BF18
S11308D083B7826083BF83B78B7F83BF80E0089533
S11308E083B7816083BF83B7826083BF83B78B7F05
S11308F083BF80E0089583B78E7F83BF83B78D7FE6
S113090083BF83B7846083BF80E0089583B7816029
S113091083BF83B78D7F83BF83B7846083BF80E049
S1130920089583B78E7F83BF83B7826083BF83B705
S1130930846083BF80E0089583B7816083BF83B7F9
S1130940826083BF83B7846083BF80E008958E2F65
S113095090E08A30910508F0CAC0FC01EC5CFF4FBE
S11309600C94C9058EB58E7F8EBD8EB58D7F8EBDE0
S11309708EB58B7F8EBD80E008958EB581608EBD6F
S11309808EB58D7F8EBD8EB58B7F8EBD80E0089534
S11309908EB58E7F8EBD8EB582608EBD8EB58B7FFB
S11309A08EBD80E008958EB581608EBD8EB5826067
S11309B08EBD8EB58B7F8EBD80E008958EB58E7F03
S11309C08EBD8EB58D7F8EBD8EB584608EBD80E06C
S11309D008958EB581608EBD8EB58D7F8EBD8EB52A
S11309E084608EBD80E008958EB58E7F8EBD8EB5F9
S11309F082608EBD8EB584608EBD80E008958EB514
S1130A0081608EBD8EB582608EBD8EB584608EBDD4
S1130A1080E008958E2F90E08830910508F069C039
S1130A20FC01E25CFF4F0C94C90585B58B7F85BD45
S1130A3085B58D7F85BD85B58E7F85BD80E00895A4
S1130A4085B5846085BD85B58D7F85BD85B58E7F73
S1130A5085BD80E0089585B58B7F85BD85B58260B1
S1130A6085BD85B58E7F85BD80E0089585B584609C
S1130A7085BD85B5826085BD85B58E7F85BD80E0E9
S1130A80089585B58B7F85BD85B58D7F85BD85B57D
S1130A90816085BD80E0089585B5846085BD85B598
S1130AA08D7F85BD85B5816085BD80E0089585B560
S1130AB08B7F85BD85B5826085BD85B5816085BD2B
S1130AC080E0089585B5846085BD85B5826085BD67
S1130AD085B5816085BD80E0089583E0089583E055
S1130AE0089583E0089583E0089583E0089583E002
S1130AF0089583E00895009711F1FC0120812330CB
S1130B0000F581818A30F8F4213051F018F0223058
S1130B1081F01BC012BE13BE1CBE18BE80E0089537
S1130B201CBC1DBC1FBC1EBC1BBC1ABC18BE80E078
S1130B30089514BC15BC13BC18BE80E0089583E06E
S1130B40089583E0089583E0089583E0089500976D
S1130B50D1F06330D0F4613051F018F0623069F0B4
S1130B6016C0909376008093750080E0089590936A
S1130B7074008093730080E00895909372008093D2
S1130B80710080E0089583E0089583E0089583E090
S1130B900895EE0FFF1F0590F491E02D0994F89449
S1050BA0FFCF81
S9030000FC
