:100000000C942A000C9447000C9447000C94470071
:100010000C9447000C94AF070C9447000C944700D5
:100020000C9447000C947F070C9447000C944F07E6
:100030000C9447000C9447000C9447000C94470024
:100040000C9447000C9447000C9447000C94470014
:100050000C94470011241FBECFE5D8E0DEBFCDBF12
:1000600010E0A0E6B0E0E6E8F4E102C005900D92F1
:10007000A83FB107D9F721E0A8EFB0E001C01D9279
:10008000A833B207E1F70E94CB050C94410A0C9407
:1000900000008091F9008F5F8093F90080E091E08B
:1000A0000E94B9050895EF92FF920F931F93CF938B
:1000B000DF93E0E0F1E01082D1E0D48380EF90E0C4
:1000C0009383828389E490E096838583CF010E94A5
:1000D0009905EDEFF0E087E08283D083D183CF01F3
:1000E0000E94F004E3E1F1E010821186128613868B
:1000F000D4871586C2E0C68717860F2EF3E0EF2E51
:10010000F02DE08A118A6894FF24F2F8F28A138AAB
:1001100005E0048B158A16E0168BCF010E94780348
:10012000EAE2F1E0C683E782C087F186C2870387EF
:10013000C4871587C0831182C283D383C483C583D8
:10014000CF010E943E02EBEFF0E0D1831082CF019D
:100150000E940502DF91CF911F910F91FF90EF90C8
:1001600008950E94130461E081E00E94190489E669
:1001700090E00E9492041092F9002FEF89E698E136
:10018000215080409040E1F700C000000E9413041D
:1001900061E081E00E94190481E790E00E949204EE
:1001A00061E082E00E9419048BEC90E00E949204CE
:1001B0001092F9002FEF89E698E12150804090409D
:1001C000E1F700C0000084E18093F80081E08093B3
:1001D000FA000895CF93DF9300D01F92CDB7DEB71A
:1001E00019820E94130461E081E00E94190481E8F1
:1001F00090E00E9492041092F9002FEF84E39CE0BB
:10020000215080409040E1F700C000000E9413049C
:1002100061E081E00E94190482E990E00E9492046A
:100220006BE081E00E94190489E990E00E94920449
:100230008091F8004AE0BE016E5F7F4F90E00E941F
:100240000C0A68E081E00E941904CE0102960E9427
:100250009204CE0101960E947B028981813341F490
:100260008091F800833220F78F5F8093F800E0CF11
:10027000823341F48091F8008331D0F28150809331
:10028000F800D6CF8333A1F682E08093FA000F9076
:100290000F900F90DF91CF910895CF93DF9300D00F
:1002A0001F92CDB7DEB719820E94130461E081E08E
:1002B0000E94190480EA90E00E94920481C060E6E6
:1002C00070E08DEF90E00E94130582BB809160008A
:1002D0004AE0BE016E5F7F4F90E00E940C0A62E030
:1002E00082E00E941904CE0102960E94920490912D
:1002F00060008091F800891728F483E00E94AC0424
:100300000E942002CE0101960E947B0289818533E2
:1003100031F08E3409F454C0843369F526C00E944C
:100320002F0284E18093F8000E94130461E081E0D1
:100330000E94190480EB90E00E94920461E082E048
:100340000E9419048EEB90E00E9492041092F90032
:100350002FEF89E698E1215080409040E1F700C0FE
:10036000000081E08093FA002BC00E942F0281E000
:100370008093FA0025C00E94130461E081E00E948E
:1003800019048EEC90E00E94920461E082E00E94E9
:1003900019048FED90E00E9492042FEF89E698E116
:1003A000215080409040E1F700C000000E941304FB
:1003B00061E081E00E94190480EA90E00E949204CA
:1003C0008091FA00823009F47ACF0F900F900F904D
:1003D000DF91CF9108958FEF81BB0E94530002C03F
:1003E0000E94B1008091FA00811103C0F9CF0E94F0
:1003F000EA008091FA008130D1F302C00E944D01E1
:100400008091FA008230D1F3EDCFCF93DF93009744
:1004100099F0EC01688141E089810E942F068111E9
:100420000CC08981E8E0F1E081838881808381E0EC
:100430008093070180E001C086E0DF91CF910895AD
:1004400080910701882349F0E8E0F1E0608141E014
:1004500081810E94690680E0089586E00895809178
:100460000701882349F0E8E0F1E0608140E0818104
:100470000E94690680E0089586E00895CF93DF9397
:100480000097A9F1EC01698140E088810E942F0664
:100490006B8140E08A810E942F066D8140E08C8153
:1004A0000E942F06698141E088810E9469066B8164
:1004B00041E08A810E9469066D8141E08C810E9441
:1004C00069066F8141E08E810E942F06698541E0B7
:1004D00088850E942F066B8541E08A850E942F0641
:1004E0006D8541E08C850E942F0680E001C087E089
:1004F000DF91CF910895DF92EF92FF920F931F93B8
:10050000CF93DF931F92CDB7DEB77C010AE211E0F3
:10051000F801678141E086810E946906F8016185E2
:1005200041E080850E946906F801638541E082858B
:100530000E946906F801658541E084850E9469068C
:1005400000E0D12C42C0EAE2F1E06781600F40E0B8
:1005500086810E94690610E02DC0EAE2F1E0618127
:10056000610FAE014F5F5F4F80810E94E406898179
:1005700081111FC00AC0EAE2F1E06181610FAE01A2
:100580004F5F5F4F80810E94E4068981882399F341
:10059000802F90E0FC01EE0FFF1FE80FF91FE551DF
:1005A000FF4FE10FF11D8081F7018083DD24D3949B
:1005B00003C01F5F133088F2EAE2F1E06781600F49
:1005C00041E086810E9469060F5F043008F4BBCFCA
:1005D000F1E0DF1619F08EE4F701808380E00F90E0
:1005E000DF91CF911F910F91FF90EF90DF900895D1
:1005F000CF93DF93C3E1D1E06E8941E08D890E9402
:10060000690682E08A95F1F700C06E8940E08D8925
:100610000E946906DF91CF9108951F93CF93DF93D6
:10062000EC01162F6E8940E08D890E9469066A8967
:1006300040E089890E9469066C8940E08B890E94AC
:10064000690680910A0181114AC06889412F441FBF
:100650004427441F8F850E9469066E8516FB442738
:1006600040F98D850E9469066C8515FB442740F989
:100670008B850E9469066A8514FB442740F98985A9
:100680000E9469060E94F8028FE697E10197F1F750
:1006900000C00000688913FB442740F98F850E9441
:1006A00069066E8512FB442740F98D850E94690614
:1006B0006C8511FB442740F98B850E9469066A8589
:1006C000412F417089850E9469060E94F8028FE6D9
:1006D00097E10197F1F700C0000080E005C081308C
:1006E00011F480E001C085E0DF91CF911F91089562
:1006F0001F93CF93DF93EC016A8941E089890E94BF
:100700002F06182F6C8941E08B890E942F06182B29
:100710006E8941E08D890E942F06182B88818823DD
:1007200019F0813099F177C062E083E191E00E9495
:100730000D0368E283E191E00E940D036CE083E128
:1007400091E00E940D0366E083E191E00E940D03B9
:1007500061E083E191E00E940D036A8541E08985B3
:100760000E942F06182B6C8541E08B850E942F0676
:10077000182B6E8541E08D850E942F06182B688905
:1007800041E08F850E942F06812B46C068E383E1FC
:1007900091E00E940D036CE083E191E00E940D0363
:1007A00066E083E191E00E940D0361E083E191E066
:1007B0000E940D036A8141E089810E942F06182B57
:1007C0006C8141E08B810E942F06182B6E8141E0E5
:1007D0008D810E942F06182B688541E08F810E9431
:1007E0002F06182B6A8541E089850E942F06182B59
:1007F0006C8541E08B850E942F06182B6E8541E0A9
:100800008D850E942F06182B688941E08F850E94F4
:100810002F06812B01C085E0988190930A01DF911A
:10082000CF911F91089561E083E191E00E940D0353
:100830000895813019F0823041F00EC0615883E193
:1008400091E00E940D0380E00895615483E191E0FE
:100850000E940D0380E0089585E008951F93CF93D3
:10086000DF93EC01162F6E8940E08D890E946906A6
:100870006A8941E089890E9469066C8940E08B8918
:100880000E94690680910A01811148C06889412F40
:10089000441F4427441F8F850E9469066E8516FBFE
:1008A000442740F98D850E9469066C8515FB442715
:1008B00040F98B850E9469066A8514FB442740F93C
:1008C00089850E9469060E94F8028FE697E10197E8
:1008D000F1F700C00000688913FB442740F98F85B9
:1008E0000E9469066E8512FB442740F98D850E949F
:1008F00069066C8511FB442740F98B850E946906C7
:100900006A85412F417089850E9469060E94F8021C
:100910008FE697E10197F1F700C00000DF91CF91DA
:100920001F9108950F931F93CF93009781F08C012F
:10093000C0E005C083E191E00E942E04CF5FF80182
:10094000EC0FF11D60816111F5CF80E001C085E001
:10095000CF911F910F9108951F93CF93DF93CDB740
:10096000DEB728970FB6F894DEBF0FBECDBF98E074
:10097000E1E6F0E0DE01119601900D929A95E1F723
:10098000682F70E0685F7F4F660F660F660F83E128
:1009900091E00E940D0310E00CC0E1E0F0E0EC0FEC
:1009A000FD1FE10FF11D608183E191E00E942E04A3
:1009B0001F5F183090F360EC83E191E00E940D031B
:1009C00063E083E191E00E942E0480E028960FB658
:1009D000F894DEBF0FBECDBFDF91CF911F91089578
:1009E000CF93DF930097B9F0FC0122812830A8F45F
:1009F00021812830A0F4EC01EBE0F1E02183888133
:100A00008083CF010E94D0056A8140E080E00E948F
:100A10002F0680E005C088E003C088E001C088E0C0
:100A2000DF91CF9108958F929F92AF92BF92EF92F4
:100A3000FF920F931F93CF93DF9300D000D0CDB7D9
:100A4000DEB719821A821B821C826115710509F4B6
:100A50005AC0009709F459C0FC012281283008F0DF
:100A600056C03181383008F054C07B018C01BE0182
:100A70006F5F7F4F822F0E94E70581114BC0F80105
:100A80009081933031F0913079F0812C912C540188
:100A900013C00F2EFAE08F2EF7ED9F2EF3E2AF2E4C
:100AA000FBE3BF2EF02D08C00F2E812C912CF0EA15
:100AB000AF2EFBE3BF2EF02D682F70E080E090E0BA
:100AC0000E94E808A50194010E94530920E030E04B
:100AD00048EC52E40E9453094B015C0120E030E0F5
:100AE00046E153E40E944E0988232CF086E9F70181
:100AF000808380E00FC0C501B4010E94B908F701EE
:100B0000608380E007C088E005C088E003C088E01B
:100B100001C088E00F900F900F900F90DF91CF9160
:100B20001F910F91FF90EF90BF90AF909F908F908B
:100B300008951F93CF93DF93009791F0FC012081DC
:100B4000233080F421812A3078F4EC010E94DF0701
:100B5000182F68818D819E810E949708812B05C086
:100B600083E003C083E001C083E0DF91CF911F9158
:100B70000895009751F0FC012081233040F4218139
:100B80002A3038F40E946B08089583E0089583E0CA
:100B9000089583E008950E94EB0180E090E00895BD
:100BA000009799F0FC012181206826B98081829507
:100BB000880F880F807C87B981E090E001C00196A2
:100BC0008A309105E4F380E0089584E008950F935E
:100BD0001F93CF938830E0F561157105D9F18B0132
:100BE000C82F4AB381E090E09C010C2E02C0220F76
:100BF000331F0A94E2F7842F90E0822393230C2E74
:100C000002C0969587950A94E2F7892B29F040E077
:100C10006C2F80E00E942F063699FECF87B1887F27
:100C20008C2B87B986B1806486B98FE19EE40197E9
:100C3000F1F700C00000349BFECF24B185B190E0F5
:100C4000982F8827822BF8019183808380E003C04E
:100C500084E001C084E0CF911F910F910895683026
:100C6000A0F581110BC08AB350E002C0440F551F9C
:100C70006A95E2F7482B4ABB80E00895813059F429
:100C800087B350E002C0440F551F6A95E2F7482B26
:100C900047BB80E00895823059F484B350E002C02D
:100CA000440F551F6A95E2F7482B44BB80E0089536
:100CB000833069F481B350E002C0440F551F6A9538
:100CC000E2F7482B41BB80E0089581E0089582E07F
:100CD0000895683008F074C081111BC0413061F480
:100CE0002BB381E090E002C0880F991F6A95E2F76C
:100CF000822B8BBB80E008952BB381E090E002C093
:100D0000880F991F6A95E2F7809582238BBB80E05C
:100D100008958130D9F4413061F428B381E090E046
:100D200002C0880F991F6A95E2F7822B88BB80E08A
:100D3000089528B381E090E002C0880F991F6A955A
:100D4000E2F78095822388BB80E008958230D9F451
:100D5000413061F425B381E090E002C0880F991F13
:100D60006A95E2F7822B85BB80E0089525B381E088
:100D700090E002C0880F991F6A95E2F78095822360
:100D800085BB80E008958330E9F4413061F422B3FB
:100D900081E090E002C0880F991F6A95E2F7822BEC
:100DA00082BB80E0089522B381E090E002C0880F0A
:100DB000991F6A95E2F78095822382BB80E00895AF
:100DC00081E0089582E00895683008F064C08111E0
:100DD00017C079B381E090E09C01062E02C0220F7B
:100DE000331F0A94E2F7872F90E08223932302C0F7
:100DF000969587956A95E2F7FA01808380E00895D9
:100E00008130B9F476B381E090E09C01062E02C0F7
:100E1000220F331F0A94E2F7872F90E08223932357
:100E200002C0969587956A95E2F7FA01808380E083
:100E300008958230B9F473B381E090E09C01062EEE
:100E400002C0220F331F0A94E2F7872F90E082231B
:100E5000932302C0969587956A95E2F7FA018083FD
:100E600080E008958330C9F470B381E090E09C0184
:100E7000062E02C0220F331F0A94E2F7872F90E05C
:100E80008223932302C0969587956A95E2F7FA012B
:100E9000808380E0089581E0089582E008951F92A4
:100EA0000F920FB60F9211242F933F934F935F939E
:100EB0006F937F938F939F93AF93BF93EF93FF9322
:100EC0008091110190911201892B41F088B78E7F9A
:100ED00088BFE0911101F09112010995FF91EF9106
:100EE000BF91AF919F918F917F916F915F914F9142
:100EF0003F912F910F900FBE0F901F9018951F924A
:100F00000F920FB60F9211242F933F934F935F933D
:100F10006F937F938F939F93AF93BF93EF93FF93C1
:100F200080910F0190911001892B41F088B78B7F40
:100F300088BFE0910F01F09110010995FF91EF91A9
:100F4000BF91AF919F918F917F916F915F914F91E1
:100F50003F912F910F900FBE0F901F9018951F92E9
:100F60000F920FB60F9211242F933F934F935F93DD
:100F70006F937F938F939F93AF93BF93EF93FF9361
:100F800080910D0190910E01892B41F088B78F7BE4
:100F900088BFE0910D01F0910E010995FF91EF914D
:100FA000BF91AF919F918F917F916F915F914F9181
:100FB0003F912F910F900FBE0F901F9018950097A3
:100FC00009F47BC0FC012081233008F078C0318116
:100FD0003A3008F076C0213011F120F0223009F4C7
:100FE0004FC071C012BE13BE1CBEFC01228122BFC5
:100FF00023B7206823BF23B72F7B23BF23B7277FC7
:1010000023BF23B72F7E23BF23B72F7D23BF848128
:1010100081115BC089B7816089BF80E008951CBCE5
:101020001DBC1FBC1EBC1BBC1ABCFC012281338131
:101030003DBD2CBD2FB528602FBD2FB524602FBD21
:101040002FB52E7F2FBD2FB52D7F2FBD2EB52F7E17
:101050002EBD2EB5277F2EBD2FB52F7B2FBD2FB5D3
:101060002F772FBD2FB52F7E2FBD2FB52F7D2FBDF5
:10107000848181112CC089B7846089BF80E0089584
:1010800014BC15BC13BCFC01228124BD25B520680D
:1010900025BD25B52F7B25BD25B5277F25BD25B5CC
:1010A0002F7E25BD25B52F7D25BD8481811111C0E1
:1010B00089B7806489BF80E0089583E0089583E064
:1010C000089583E0089583E0089580E0089580E026
:1010D000089580E00895009711F1FC0120812330EC
:1010E00000F581818A30F8F4213051F018F0223077
:1010F00081F01BC012BE13BE1CBE18BE80E0089556
:101100001CBC1DBC1FBC1EBC1BBC1ABC18BE80E096
:10111000089514BC15BC13BC18BE80E0089583E08C
:10112000089583E0089583E0089583E0089500978B
:10113000D1F06330D0F4613051F018F0623069F0D2
:1011400016C0909312018093110180E0089590934E
:10115000100180930F0180E0089590930E01809319
:101160000D0180E0089583E0089583E0089583E011
:1011700008950E942D0988F09F5798F0B92F99275C
:10118000B751B0F0E1F0660F771F881F991F1AF072
:10119000BA95C9F714C0B13091F00E944709B1E087
:1011A00008950C944709672F782F8827B85F39F086
:1011B000B93FCCF3869577956795B395D9F73EF40B
:1011C00090958095709561957F4F8F4F9F4F0895B3
:1011D000E89409C097FB3EF49095809570956195D1
:1011E0007F4F8F4F9F4F9923A9F0F92F96E9BB2787
:1011F0009395F695879577956795B795F111F8CF03
:10120000FAF4BB0F11F460FF1BC06F5F7F4F8F4F6D
:101210009F4F16C0882311F096E911C0772321F063
:101220009EE8872F762F05C0662371F096E8862FFB
:1012300070E060E02AF09A95660F771F881FDAF752
:10124000880F9695879597F9089557FD9058440F04
:10125000551F59F05F3F71F04795880F97FB991F15
:1012600061F09F3F79F087950895121613061406D2
:10127000551FF2CF4695F1DF08C01616170618065F
:10128000991FF1CF86957105610508940895E8943A
:10129000BB2766277727CB0197F908950E94C009DD
:1012A00008F48FEF08950E9466090C94FB090E94D0
:1012B000ED0938F00E94F40920F0952311F00C9408
:1012C000E4090C94EA0911240C9448090E942509A8
:1012D00070F3959FC1F3950F50E0551F629FF00189
:1012E000729FBB27F00DB11D639FAA27F00DB11DA2
:1012F000AA1F649F6627B00DA11D661F829F22272B
:10130000B00DA11D621F739FB00DA11D621F839FB1
:10131000A00D611D221F749F3327A00D611D231F87
:10132000849F600D211D822F762F6A2F11249F57D5
:1013300050409AF0F1F088234AF0EE0FFF1FBB1FD8
:10134000661F771F881F91505040A9F79E3F510597
:1013500080F00C94E4090C9448095F3FE4F3983E54
:10136000D4F3869577956795B795F795E7959F5F41
:10137000C1F7FE2B880F911D9695879597F90895D3
:10138000990F0008550FAA0BE0E8FEEF1616170696
:10139000E807F907C0F012161306E407F50798F0FE
:1013A000621B730B840B950B39F40A2661F0232B17
:1013B000242B252B21F408950A2609F4A140A69593
:1013C0008FEF811D811D089597F99F6780E870E078
:1013D00060E008959FEF80EC089500240A941616AB
:1013E000170618060906089500240A941216130613
:1013F000140605060895092E0394000C11F48823A1
:1014000052F0BB0F40F4BF2B11F460FF04C06F5FBC
:101410007F4F8F4F9F4F0895BB274A3031F4992358
:1014200022F4BDE2909581959F4F0C94180ABB273A
:10143000FB015527AA27880F991FAA1FA41710F090
:10144000A41B83955051B9F7A05DAA3308F0A95D9C
:10145000A193009779F7B111B1931192CB010C943C
:10146000310ADC01FC01672F71917723E1F7329794
:1014700004C07C916D9370836291AE17BF07C8F36F
:061480000895F894FFCF6F
:1014860014040E0E0E1F00040057656C636F6D6525
:101496000064656661756C742054656D70206973AF
:1014A6000053657420496E697469616C2054656DDA
:1014B60070004D696E3D3138004D61783D33350021
:1014C60043757272656E742054656D70203D200000
:1014D60054656D702076616C756520697300726560
:1014E600736574746C656420746F203230007468A0
:1014F60065206F7065726174696F6E206973006E26
:101506006F7420616C6C6F776564003132333435EB
:08151600363738392A30230072
:00000001FF
