S017000041697220436F6E646974696F6E65722E7372656353
S11300000C9446000C9463000C9463000C946300FD
S11300100C9463000C94D0030C9463000C94630060
S11300200C9463000C94A0030C9463000C94700370
S11300300C9463000C9463000C9463000C946300B0
S11300400C9463000C9463000C9463000C946300A0
S11300500C946300AC04B704C204D205CD04D205E9
S1130060D804E304EE04F9040F051A052505D405A4
S11300703005D4053B05460551055C0572057D0533
S1130080880593059E05A905B405BF0511241FBE67
S1130090CFE5D8E0DEBFCDBF10E0A0E6B0E0ECE5F0
S11300A0FEE002C005900D92A036B107D9F720E01A
S11300B0A0E6B0E001C01D92A43AB207E1F70E94A5
S11300C089020C942C070C940000809160008F5FCF
S11300D08093600086E690E00E94770208951F9363
S11300E0CF93DF93E6E6F0E01082148280EF90E095
S11300F09383828385E690E096838583CF010E9473
S1130100450286E690E00E946502E3E6F0E087E0BF
S11301108283D1E0D083D183CF010E941C02EFE718
S1130120F0E01082118612861386D4871586C2E009
S1130130C687178613E0108BCF010E948E01E6E973
S1130140F0E0C6831783C08784E08187C28785E097
S11301508387C48786E08587C0831182C283D38363
S1130160C483C583CF010E94DB00E1E6F0E0D183C4
S11301701082CF010E94C000DF91CF911F9108959A
S1130180CF93DF93009799F0EC01688141E0898176
S11301900E94BB0281110CC08981EEE6F0E08183EC
S11301A08881808381E080936D0080E001C086E0D7
S11301B0DF91CF910895CF93DF930097A9F1EC01DC
S11301C0698140E088810E94BB026B8140E08A81A2
S11301D00E94BB026D8140E08C810E94BB02698158
S11301E041E088810E94F5026B8141E08A810E948E
S11301F0F5026D8141E08C810E94F5026F8141E03E
S11302008E810E94BB02698541E088850E94BB0201
S11302106B8541E08A850E94BB026D8541E08C8537
S11302200E94BB0280E001C087E0DF91CF91089576
S1130230CF93DF93CFE7D0E06E8941E08D890E94B0
S1130240F50200006E8940E08D890E94F502DF917D
S1130250CF9108951F93CF93DF93EC01162F6E89EE
S113026040E08D890E94F5026A8940E089890E94F4
S1130270F5026C8940E08B890E94F5028091700040
S1130280811148C06889412F441F4427441F8F852A
S11302900E94F5026E8516FB442740F98D850E9465
S11302A0F5026C8515FB442740F98B850E94F50205
S11302B06A8514FB442740F989850E94F5020E944F
S11302C018018DEE92E00197F1F700C000006889F3
S11302D013FB442740F98F850E94F5026E8512FBBB
S11302E0442740F98D850E94F5026C8511FB442753
S11302F040F98B850E94F5026A85412F41708985FA
S11303000E94F5020E9418018DEE92E00197F1F728
S113031000C00000DF91CF911F910895CF93DF9328
S1130320EC016A8941E089890E94BB026C8941E041
S11303308B890E94BB026E8941E08D890E94BB02B9
S11303408881882319F0813079F16AC062E08FE7EF
S113035090E00E942A0168E28FE790E00E942A015F
S11303606CE08FE790E00E942A0166E08FE790E05E
S11303700E942A0161E08FE790E00E942A016A85C9
S113038041E089850E94BB026C8541E08B850E9417
S1130390BB026E8541E08D850E94BB02688941E005
S11303A08F850E94BB023CC068E38FE790E00E9407
S11303B02A016CE08FE790E00E942A0166E08FE753
S11303C090E00E942A0161E08FE790E00E942A01F8
S11303D06A8141E089810E94BB026C8141E08B818A
S11303E00E94BB026E8141E08D810E94BB02688540
S11303F041E08F810E94BB026A8541E089850E94A9
S1130400BB026C8541E08B850E94BB026E8541E096
S11304108D850E94BB02688941E08F850E94BB02E2
S1130420888180937000DF91CF9108958093740048
S11304300895809373000895CF93DF930097E9F0B4
S1130440FC0122812830D8F421812830D0F4EC0139
S1130450E1E7F0E0218388818083CF010E948C0250
S11304606A8140E080E00E94BB028A810E941602F9
S113047088810E94190280E005C088E003C088E0FA
S113048001C088E0DF91CF9108951F93CF93DF934C
S1130490009791F0FC012081233080F421812A30DF
S11304A078F4EC010E940004182F68818D819E81EC
S11304B00E940406812B05C083E003C083E001C0D1
S11304C083E0DF91CF911F910895009751F0FC01D3
S11304D02081233040F421812A3038F40E948C0496
S11304E0089583E0089583E0089583E008950097D4
S11304F051F0FC012081233040F421812A3038F46A
S11305000E94D805089583E0089583E0089583E068
S113051008950E946F00FFCF009759F1FC012181DB
S1130520206826B980818295880F880F807C87B9DE
S113053081E090E062E070E003C0660F771F0196EF
S11305408A309105D4F380E090E00E9498069B01E4
S1130550AC0160E070E080EA90E40E9426066093BB
S1130560750070937600809377009093780080E014
S1130570089584E008956830A0F581110BC08AB312
S113058050E002C0440F551F6A95E2F7482B4ABB5E
S113059080E00895813059F487B350E002C0440FDD
S11305A0551F6A95E2F7482B47BB80E008958230D7
S11305B059F484B350E002C0440F551F6A95E2F722
S11305C0482B44BB80E00895833069F481B350E044
S11305D002C0440F551F6A95E2F7482B41BB80E0E7
S11305E0089581E0089582E00895683008F074C0A9
S11305F081111BC0413061F42BB381E090E002C053
S1130600880F991F6A95E2F7822B8BBB80E00895CF
S11306102BB381E090E002C0880F991F6A95E2F73E
S1130620809582238BBB80E008958130D9F44130DA
S113063061F428B381E090E002C0880F991F6A95A5
S1130640E2F7822B88BB80E0089528B381E090E034
S113065002C0880F991F6A95E2F78095822388BBB0
S113066080E008958230D9F4413061F425B381E00B
S113067090E002C0880F991F6A95E2F7822B85BB30
S113068080E0089525B381E090E002C0880F991FAF
S11306906A95E2F78095822385BB80E008958330D4
S11306A0E9F4413061F422B381E090E002C0880FA4
S11306B0991F6A95E2F7822B82BB80E0089522B3EA
S11306C081E090E002C0880F991F6A95E2F7809557
S11306D0822382BB80E0089581E0089582E008953A
S11306E01F920F920FB60F9211242F933F934F93A3
S11306F05F936F937F938F939F93AF93BF93EF9386
S1130700FF9380917D0090917E00892B41F088B702
S11307108E7F88BFE0917D00F0917E000995FF9166
S1130720EF91BF91AF919F918F917F916F915F9165
S11307304F913F912F910F900FBE0F901F901895DE
S11307401F920F920FB60F9211242F933F934F9342
S11307505F936F937F938F939F93AF93BF93EF9325
S1130760FF9380917B0090917C00892B41F088B7A6
S11307708B7F88BFE0917B00F0917C000995FF910D
S1130780EF91BF91AF919F918F917F916F915F9105
S11307904F913F912F910F900FBE0F901F9018957E
S11307A01F920F920FB60F9211242F933F934F93E2
S11307B05F936F937F938F939F93AF93BF93EF93C5
S11307C0FF938091790090917A00892B41F088B74A
S11307D08F7B88BFE0917900F0917A000995FF91B1
S11307E0EF91BF91AF919F918F917F916F915F91A5
S11307F04F913F912F910F900FBE0F901F9018951E
S1130800009709F47BC0FC012081233008F078C0F4
S113081031813A3008F076C0213011F120F02230D5
S113082009F44FC071C012BE13BE1CBEFC0122816C
S113083022BF23B7206823BF23B72F7B23BF23B74F
S1130840277F23BF23B72F7E23BF23B72F7D23BF4B
S1130850848181115BC089B7816089BF80E008957C
S11308601CBC1DBC1FBC1EBC1BBC1ABCFC012281D1
S113087033813DBD2CBD2FB528602FBD2FB524601D
S11308802FBD2FB52E7F2FBD2FB52D7F2FBD2EB59C
S11308902F7E2EBD2EB5277F2EBD2FB52F7B2FBDCE
S11308A02FB52F772FBD2FB52F7E2FBD2FB52F7DC1
S11308B02FBD848181112CC089B7846089BF80E0F9
S11308C0089514BC15BC13BCFC01228124BD25B5BC
S11308D0206825BD25B52F7B25BD25B5277F25BDE2
S11308E025B52F7E25BD25B52F7D25BD848181119C
S11308F011C089B7806489BF80E0089583E00895BA
S113090083E0089583E0089583E0089580E00895E6
S113091080E0089580E00895009709F43BC1DC016C
S11309202C91233008F038C11196EC91EA3008F08C
S113093035C1213009F468C020F0223009F4C7C061
S11309402FC18E2F90E08A30910508F02BC1FC0155
S1130950E65DFF4F0C94260783B78E7F83BF83B772
S11309608D7F83BF83B78B7F83BF80E0089583B778
S1130970816083BF83B78D7F83BF83B78B7F83BF42
S113098080E0089583B78E7F83BF83B7826083BF7F
S113099083B78B7F83BF80E0089583B7816083BF73
S11309A083B7826083BF83B78B7F83BF80E0089562
S11309B083B78E7F83BF83B78D7F83BF83B7846004
S11309C083BF80E0089583B7816083BF83B78D7F41
S11309D083BF83B7846083BF80E0089583B78E7F2D
S11309E083BF83B7826083BF83B7846083BF80E0A3
S11309F0089583B7816083BF83B7826083BF83B761
S1130A00846083BF80E008958E2F90E08A30910542
S1130A1008F0CAC0FC01EC5CFF4F0C9426078EB5AD
S1130A208E7F8EBD8EB58D7F8EBD8EB58B7F8EBD38
S1130A3080E008958EB581608EBD8EB58D7F8EBDAC
S1130A408EB58B7F8EBD80E008958EB58E7F8EBD72
S1130A508EB582608EBD8EB58B7F8EBD80E008958D
S1130A608EB581608EBD8EB582608EBD8EB58B7F56
S1130A708EBD80E008958EB58E7F8EBD8EB58D7F40
S1130A808EBD8EB584608EBD80E008958EB5816084
S1130A908EBD8EB58D7F8EBD8EB584608EBD80E09B
S1130AA008958EB58E7F8EBD8EB582608EBD8EB557
S1130AB084608EBD80E008958EB581608EBD8EB554
S1130AC082608EBD8EB584608EBD80E008958E2FC9
S1130AD090E08830910508F069C0FC01E25CFF4FAA
S1130AE00C94260785B58B7F85BD85B58D7F85BD27
S1130AF085B58E7F85BD80E0089585B5846085BD0C
S1130B0085B58D7F85BD85B58E7F85BD80E00895D3
S1130B1085B58B7F85BD85B5826085BD85B58E7FA6
S1130B2085BD80E0089585B5846085BD85B5826006
S1130B3085BD85B58E7F85BD80E0089585B58B7FA5
S1130B4085BD85B58D7F85BD85B5816085BD80E01A
S1130B50089585B5846085BD85B58D7F85BD85B5D2
S1130B60816085BD80E0089585B58B7F85BD85B5A1
S1130B70826085BD85B5816085BD80E0089585B5B9
S1130B80846085BD85B5826085BD85B5816085BD80
S1130B9080E0089583E0089583E0089583E0089554
S1130BA083E0089583E0089583E0089583E0089541
S1130BB0009711F1FC012081233000F581818A30F6
S1130BC0F8F4213051F018F0223081F01BC012BE2D
S1130BD013BE1CBE18BE80E008951CBC1DBC1FBC07
S1130BE01EBC1BBC1ABC18BE80E0089514BC15BC06
S1130BF013BC18BE80E0089583E0089583E008954F
S1130C0083E0089583E008950097D1F06330D0F431
S1130C10613051F018F0623069F016C090937E0094
S1130C2080937D0080E0089590937C0080937B0006
S1130C3080E0089590937A008093790080E008958D
S1130C4083E0089583E0089583E008950E943A06BE
S1130C500C94EC060E94E50658F00E94DE0640F073
S1130C6029F45F3F29F00C94D50651110C94200708
S1130C700C94DB060E94FD0668F39923B1F3552317
S1130C8091F3951B550BBB27AA276217730784079B
S1130C9038F09F5F5F4F220F331F441FAA1FA9F331
S1130CA035D00E2E3AF0E0E832D091505040E6951F
S1130CB0001CCAF72BD0FE2F29D0660F771F881F80
S1130CC0BB1F261737074807AB07B0E809F0BB0B73
S1130CD0802DBF01FF2793585F4F3AF09E3F510587
S1130CE078F00C94D5060C9420075F3FE4F3983E0B
S1130CF0D4F3869577956795B795F7959F5FC9F770
S1130D00880F911D9695879597F90895E1E0660FF0
S1130D10771F881FBB1F621773078407BA0720F069
S1130D20621B730B840BBA0BEE1F88F7E0950895D2
S1130D30E89409C097FB3EF4909580957095619571
S1130D407F4F8F4F9F4F9923A9F0F92F96E9BB2727
S1130D509395F695879577956795B795F111F8CFA3
S1130D60FAF4BB0F11F460FF1BC06F5F7F4F8F4F0E
S1130D709F4F16C0882311F096E911C0772321F004
S1130D809EE8872F762F05C0662371F096E8862F9C
S1130D9070E060E02AF09A95660F771F881FDAF7F3
S1130DA0880F9695879597F9089597F99F6780E836
S1130DB070E060E008959FEF80EC089500240A94A9
S1130DC01616170618060906089500240A94121622
S1130DD01306140605060895092E0394000C11F455
S1130DE0882352F0BB0F40F4BF2B11F460FF04C002
S1130DF06F5F7F4F8F4F9F4F089557FD9058440F5B
S1130E00551F59F05F3F71F04795880F97FB991F65
S1130E1061F09F3F79F08795089512161306140622
S1130E20551FF2CF4695F1DF08C0161617061806AF
S1130E30991FF1CF86957105610508940895E8948A
S1130E40BB2766277727CB0197F90895EE0FFF1F7D
S10F0E500590F491E02D0994F894FFCF74
S9030000FC
