:100000000C942A000C9447000C9447000C94470071
:100010000C9447000C9447000C9447000C94470044
:100020000C9447000C9447000C9447000C94470034
:100030000C9447000C9447000C9447000C94470024
:100040000C9447000C9447000C9447000C94470014
:100050000C94470011241FBECFE5D8E0DEBFCDBF12
:1000600010E0A0E6B0E0ECE7F5E002C005900D92EC
:10007000A036B107D9F720E0A0E6B0E001C01D929C
:10008000AA36B207E1F70E9449000C94BC020C9416
:100090000000E8E6F0E084E0818381E08083CF0126
:1000A0000E94860064E670E080E00E94B500D0E027
:1000B000C0E0B0E0A0E0F0E0F12C00E010E013C000
:1000C0002D2F3C2F4B2F5A2F6F2F7F2D802F912FAD
:1000D000A1E00E94B002D22FC32FB42FA52FF62F7C
:1000E000F72E082F192F2D2F3C2F4B2F5A2F6F2F04
:1000F0007F2D802F912F273E33404105510561050B
:10010000710581059105E1F2D8F2CCCF009759F144
:10011000FC012181206826B980818295880F880F93
:10012000807C87B981E090E062E070E003C0660FF8
:10013000771F01968A309105D4F380E090E00E9409
:10014000B5019B01AC0160E070E080EA90E40E94A0
:10015000430160936000709361008093620090930C
:10016000630080E0089584E008950F931F93CF9378
:10017000883008F047C06115710509F445C08B014E
:10018000C82F41B381E090E09C010C2E02C0220FE9
:10019000331F0A94E2F7842F90E0822393230C2EDE
:1001A00002C0969587950A94E2F7892B29F040E0E2
:1001B0006C2F80E00E9409013699FECF87B1807EC6
:1001C0008C2B87B986B1806486B9349BFECF84B10D
:1001D00065B170E0762F6627682B80E090E00E9482
:1001E000B501209160003091610040916200509112
:1001F00063000E944302F8016083718382839383CA
:1002000080E003C084E001C084E0CF911F910F9192
:1002100008956830A0F581110BC08AB350E002C088
:10022000440F551F6A95E2F7482B4ABB80E00895BA
:10023000813059F487B350E002C0440F551F6A95CE
:10024000E2F7482B47BB80E00895823059F484B32D
:1002500050E002C0440F551F6A95E2F7482B44BB9B
:1002600080E00895833069F481B350E002C0440F08
:10027000551F6A95E2F7482B41BB80E0089581E065
:10028000089582E008950E9457010C9409020E948B
:10029000020258F00E94FB0140F029F45F3F29F070
:1002A0000C94F20151110C943D020C94F8010E943F
:1002B0001A0268F39923B1F3552391F3951B550B5B
:1002C000BB27AA2762177307840738F09F5F5F4F29
:1002D000220F331F441FAA1FA9F335D00E2E3AF068
:1002E000E0E832D091505040E695001CCAF72BD080
:1002F000FE2F29D0660F771F881FBB1F26173707D1
:100300004807AB07B0E809F0BB0B802DBF01FF2702
:1003100093585F4F3AF09E3F510578F00C94F201EC
:100320000C943D025F3FE4F3983ED4F386957795B5
:100330006795B795F7959F5FC9F7880F911D9695BB
:10034000879597F90895E1E0660F771F881FBB1F17
:10035000621773078407BA0720F0621B730B840BC4
:10036000BA0BEE1F88F7E0950895E89409C097FB53
:100370003EF490958095709561957F4F8F4F9F4F7C
:100380009923A9F0F92F96E9BB279395F6958795C0
:1003900077956795B795F111F8CFFAF4BB0F11F483
:1003A00060FF1BC06F5F7F4F8F4F9F4F16C088232A
:1003B00011F096E911C0772321F09EE8872F762F60
:1003C00005C0662371F096E8862F70E060E02AF0A1
:1003D0009A95660F771F881FDAF7880F969587958D
:1003E00097F9089597F99F6780E870E060E00895B5
:1003F0009FEF80EC089500240A941616170618063D
:100400000906089500240A94121613061406050618
:100410000895092E0394000C11F4882352F0BB0FA9
:1004200040F4BF2B11F460FF04C06F5F7F4F8F4F0C
:100430009F4F089557FD9058440F551F59F05F3F47
:1004400071F04795880F97FB991F61F09F3F79F0F6
:1004500087950895121613061406551FF2CF469578
:10046000F1DF08C0161617061806991FF1CF8695FA
:100470007105610508940895E894BB2766277727DE
:10048000CB0197F908950E9456020C9409020E942C
:10049000FB0138F00E94020220F0952311F00C9429
:1004A000F2010C94F80111240C943D020E941A02EE
:1004B00070F3959FC1F3950F50E0551F629FF001B7
:1004C000729FBB27F00DB11D639FAA27F00DB11DD0
:1004D000AA1F649F6627B00DA11D661F829F222759
:1004E000B00DA11D621F739FB00DA11D621F839FE0
:1004F000A00D611D221F749F3327A00D611D231FB6
:10050000849F600D211D822F762F6A2F11249F5703
:1005100050409AF0F1F088234AF0EE0FFF1FBB1F06
:10052000661F771F881F91505040A9F79E3F5105C5
:1005300080F00C94F2010C943D025F3FE4F3983E8E
:10054000D4F3869577956795B795F795E7959F5F6F
:10055000C1F7FE2B880F911D9695879597F9089501
:100560000024A7FD00942A0F301D401D501D601D62
:0C057000701D801D901D0895F894FFCFB1
:00000001FF
