S017000041697220436F6E646974696F6E65722E7372656353
S11300000C942A000C943C000C943C000C943C008E
S11300100C943C000C943C000C943C000C943C006C
S11300200C943C000C943C000C943C000C943C005C
S11300300C943C000C943C000C943C000C943C004C
S11300400C943C000C943C000C943C000C943C003C
S11300500C943C0011241FBECFE5D8E0DEBFCDBF19
S113006020E0A0E6B0E001C01D92A336B207E1F79C
S11300700E9477000C944E010C940000CF93DF9300
S1130080009799F0EC01688141E089810E94990010
S113009081110CC08981E1E6F0E08183888180834D
S11300A081E08093600080E001C086E0DF91CF9121
S11300B0089580916000882349F0E1E6F0E06081D2
S11300C041E081810E94D30080E0089586E0089594
S11300D080916000882349F0E1E6F0E0608140E02F
S11300E081810E94D30080E0089586E00895CF9333
S11300F0DF9300D0CDB7DEB719821A82CE01019604
S11301000E943E000E9459002FEF83ED90E321509E
S113011080409040E1F700C000000E9468002FEF8B
S113012083ED90E3215080409040E1F700C000004F
S1130130E9CF6830A0F581110BC08AB350E002C04A
S1130140440F551F6A95E2F7482B4ABB80E0089597
S1130150813059F487B350E002C0440F551F6A95AB
S1130160E2F7482B47BB80E00895823059F484B30A
S113017050E002C0440F551F6A95E2F7482B44BB78
S113018080E00895833069F481B350E002C0440FE5
S1130190551F6A95E2F7482B41BB80E0089581E042
S11301A0089582E00895683008F074C081111BC07E
S11301B0413061F42BB381E090E002C0880F991FB5
S11301C06A95E2F7822B8BBB80E008952BB381E024
S11301D090E002C0880F991F6A95E2F78095822308
S11301E08BBB80E008958130D9F4413061F428B3A9
S11301F081E090E002C0880F991F6A95E2F7822B94
S113020088BB80E0089528B381E090E002C0880FA5
S1130210991F6A95E2F78095822388BB80E0089550
S11302208230D9F4413061F425B381E090E002C01A
S1130230880F991F6A95E2F7822B85BB80E00895A9
S113024025B381E090E002C0880F991F6A95E2F718
S11302508095822385BB80E008958330E9F44130A2
S113026061F422B381E090E002C0880F991F6A957F
S1130270E2F7822B82BB80E0089522B381E090E014
S113028002C0880F991F6A95E2F78095822382BB8A
S113029080E0089581E0089582E00895F894FFCF06
S9030000FC
