S017000041697220436F6E646974696F6E65722E7372656353
S11300000C942A000C9447000C9447000C9447006D
S11300100C9447000C9447000C9447000C94470040
S11300200C9447000C9447000C9447000C94470030
S11300300C9447000C9447000C9447000C94470020
S11300400C9447000C9447000C9447000C94470010
S11300500C94470011241FBECFE5D8E0DEBFCDBF0E
S113006010E0A0E6B0E0E0E1F5E002C005900D92FA
S1130070AA3BB107D9F720E0AAEBB0E001C01D927A
S1130080AB3EB207E1F70E9497010C9486020C94F0
S113009000008091BB008F5F8093BB0081EE90E0F5
S11300A00E94960108951F93CF93DF93E1EEF0E051
S11300B01082D1E0D48380EF90E09383828389E43B
S11300C090E096838583CF010E949501EEEDF0E0E8
S11300D087E08283D083D183CF010E949401EDEC29
S11300E0F0E01082118612861386D4871586C2E04A
S11300F0C687178613E0108BCF010E949001EFEBA7
S1130100F0E0C6831783C08784E08187C28785E0D7
S11301108387C48786E08587C0831182C283D383A3
S1130120C483C583CF010E948E01EDEBF0E0D1833F
S11301301082CF010E946401DF91CF911F91089535
S11301400E94910161E081E00E94920180E690E0CA
S11301500E9493011092BB00FFCFCF93DF9300D096
S11301601F92CDB7DEB719828091BA004AE0BE0172
S11301706E5F7F4F90E00E9451020E94910161E006
S113018081E00E94920188E690E00E94930168E079
S113019081E00E949201CE0102960E9493016BE0DD
S11301A081E00E94920188E690E00E949301CE01D2
S11301B001960E948F018981813341F48091BA00B4
S11301C0833298F48F5F8093BA000FC0823341F476
S11301D08091BA00833148F081508093BA0005C001
S11301E0833319F482E08093BC000F900F900F903A
S11301F0DF91CF910895CF93DF9300D01F92CDB7B5
S1130200DEB719824AE0BE016E5F7F4F80E090E066
S11302100E9451020E94910161E081E00E949201DA
S11302208FE690E00E94930161E082E00E949201D7
S1130230CE0102960E949301CE0101960E948F0185
S11302408981853381F40E947F0184E18093BA001F
S11302500E94910161E081E00E9492018FE790E0A9
S11302600E949301FFCF843331F40E947F0181E027
S11302708093BC000BC00E94910161E081E00E9468
S113028092018DE990E00E949301FFCF0F900F90AF
S11302900F90DF91CF9108950E94530002C00E94F5
S11302A0A0008091BC00811103C0F9CF0E94AD0071
S11302B08091BC008130D1F302C00E94FB00809188
S11302C0BC008230D1F3EDCFCF93DF93009799F048
S11302D0EC01688141E089810E949C0181110CC07C
S11302E08981E9EEF0E081838881808381E08093D5
S11302F0E80080E001C086E0DF91CF91089580910D
S1130300E800882349F0E9EEF0E0608140E0818173
S11303100E94D60180E0089586E008950895089526
S113032008950895089508950895089508950E94DC
S11303304C0180E090E008956830A0F581110BC075
S11303408AB350E002C0440F551F6A95E2F7482B68
S11303504ABB80E00895813059F487B350E002C06D
S1130360440F551F6A95E2F7482B47BB80E0089578
S1130370823059F484B350E002C0440F551F6A958B
S1130380E2F7482B44BB80E00895833069F481B3DD
S113039050E002C0440F551F6A95E2F7482B41BB59
S11303A080E0089581E0089582E00895683008F0BF
S11303B074C081111BC0413061F42BB381E090E023
S11303C002C0880F991F6A95E2F7822B8BBB80E0ED
S11303D008952BB381E090E002C0880F991F6A95BD
S11303E0E2F7809582238BBB80E008958130D9F4B5
S11303F0413061F428B381E090E002C0880F991F76
S11304006A95E2F7822B88BB80E0089528B381E0E7
S113041090E002C0880F991F6A95E2F780958223C5
S113042088BB80E008958230D9F4413061F425B36B
S113043081E090E002C0880F991F6A95E2F7822B51
S113044085BB80E0089525B381E090E002C0880F69
S1130450991F6A95E2F78095822385BB80E0089511
S11304608330E9F4413061F422B381E090E002C0CA
S1130470880F991F6A95E2F7822B82BB80E008956A
S113048022B381E090E002C0880F991F6A95E2F7D9
S11304908095822382BB80E0089581E0089582E004
S11304A00895BB274A3031F4992322F4BDE2909594
S11304B081959F4F0C945D02BB27FB015527AA270A
S11304C0880F991FAA1FA41710F0A41B83955051DD
S11304D0B9F7A05DAA3308F0A95DA193009779F755
S11304E0B111B1931192CB010C947602DC01FC01A1
S11304F0672F71917723E1F7329704C07C916D9354
S113050070836291AE17BF07C8F30895F894FFCFC4
S113051057656C636F6D65004D696E3D31380043FE
S1130520757272656E742054656D70203D200054A0
S1130530656D702076616C756520697320726573D2
S11305406574746C656420746F203230007468655F
S1130550206F7065726174696F6E206973206E6FAD
S10D05607420616C6C6F7765640011
S9030000FC
