:100000000C942A000C943C000C943C000C943C0092
:100010000C943C000C943C000C943C000C943C0070
:100020000C943C000C943C000C943C000C943C0060
:100030000C943C000C943C000C943C000C943C0050
:100040000C943C000C943C000C943C000C943C0040
:100050000C943C0011241FBECFE5D8E0DEBFCDBF1D
:1000600020E0A0E6B0E001C01D92AC38B207E1F795
:100070000E94A9000C94E8000C9400001F93CF93F9
:10008000DF93E4E8F0E01082D1E0D48380EF90E0E9
:1000900093838283CF010E94A800E1E8F0E087E02B
:1000A0008283D083D183CF010E94A700E0E7F0E0F4
:1000B0001082118612861386D4871586C2E0C68701
:1000C000178613E0108BCF010E94A600E2E6F0E055
:1000D000C6831783C08784E08187C28785E08387D2
:1000E000C48786E08587C0831182C283D383C4839B
:1000F000C583CF010E94A500E0E6F0E0D183108225
:10010000CF010E948A00DF91CF911F9108950E9434
:100110003E00FFCFCF93DF93009799F0EC01688109
:1001200041E089810E94AE0081110CC08981EAE81A
:10013000F0E081838881808381E08093890080E082
:1001400001C086E0DF91CF91089508950895089544
:1001500008950E94870080E090E008956830A0F53F
:1001600081110BC08AB350E002C0440F551F6A953D
:10017000E2F7482B4ABB80E00895813059F487B3F9
:1001800050E002C0440F551F6A95E2F7482B47BB69
:1001900080E00895823059F484B350E002C0440FE7
:1001A000551F6A95E2F7482B44BB80E008958330E1
:1001B00069F481B350E002C0440F551F6A95E2F71D
:1001C000482B41BB80E0089581E0089582E00895C6
:0401D000F894FFCFD1
:00000001FF
