:100000000C942A000C9447000C9447000C94470071
:100010000C9447000C9447000C9447000C94470044
:100020000C9447000C9447000C9447000C94470034
:100030000C9447000C9447000C9447000C94470024
:100040000C9447000C9447000C9447000C94470014
:100050000C94470011241FBECFE5D8E0DEBFCDBF12
:1000600010E0A0E6B0E0E4ECFAE002C005900D92EA
:10007000A63CB107D9F720E0A6ECB0E001C01D9284
:10008000AE3FB207E1F70E9406040C9460050C94A1
:1000900000008091C7008F5F8093C7008EEC90E0D6
:1000A0000E9404040895EF92FF920F931F93CF9341
:1000B000DF93EEECF0E01082D1E0D48380EF90E0AB
:1000C0009383828389E490E096838583CF010E94A5
:1000D0000204EBECF0E087E08283D083D183CF0190
:1000E0000E940004E9EDF0E010821186128613866A
:1000F000D4871586C2E0C68717860F2EF3E0EF2E51
:10010000F02DE08A118A6894FF24F2F8F28A138AAB
:1001100005E0048B158A16E0168BCF010E94D202EF
:10012000E0EFF0E0C683E782C087F186C2870387ED
:10013000C4871587C0831182C283D383C483C583D8
:10014000CF010E949F01E9ECF0E0D1831082CF0142
:100150000E947501DF91CF911F910F91FF90EF9059
:1001600008950E946D0361E081E00E94740380E6BF
:1001700090E00E94EA031092C700FFCFCF93DF9375
:1001800000D01F92CDB7DEB719828091C6004AE039
:10019000BE016E5F7F4F90E00E942B050E946D03B1
:1001A00061E081E00E94740388E690E00E94EA0327
:1001B00068E081E00E947403CE0102960E94EA0387
:1001C0006BE081E00E94740388E690E00E94EA03FD
:1001D000CE0101960E94DC018981813341F4809136
:1001E000C600833298F48F5F8093C6000FC08233BD
:1001F00041F48091C600833148F081508093C6005D
:1002000005C0833319F482E08093C8000F900F90EB
:100210000F90DF91CF910895CF93DF9300D01F927D
:10022000CDB7DEB719824AE0BE016E5F7F4F80E036
:1002300090E00E942B050E946D0361E081E00E9426
:1002400074038FE690E00E94EA0361E082E00E947E
:100250007403CE0102960E94EA03CE0101960E9429
:10026000DC018981853381F40E94900184E18093CF
:10027000C6000E946D0361E081E00E9474038FE775
:1002800090E00E94EA03FFCF843331F40E94900192
:1002900081E08093C8000BC00E946D0361E081E0A3
:1002A0000E9474038DE990E00E94EA03FFCF0F9053
:1002B0000F900F90DF91CF9108950E94530002C0DC
:1002C0000E94B1008091C800811103C0F9CF0E9443
:1002D000BE008091C8008130D1F302C00E940C01A1
:1002E0008091C8008230D1F3EDCFCF93DF93009798
:1002F00099F0EC01688141E089810E940B04811131
:100300000CC08981E6EDF0E081838881808381E003
:100310008093D50080E001C086E0DF91CF91089501
:100320008091D500882349F0E6EDF0E0608140E05F
:1003300081810E94450480E0089586E00895CF936E
:10034000DF930097A9F1EC01698140E088810E9468
:100350000B046B8140E08A810E940B046D8140E0B8
:100360008C810E940B04698141E088810E944504D0
:100370006B8141E08A810E9445046D8141E08C815E
:100380000E9445046F8141E08E810E940B046985C3
:1003900041E088850E940B046B8541E08A850E94BC
:1003A0000B046D8541E08C850E940B0480E001C048
:1003B00087E0DF91CF910895DF92EF92FF920F9344
:1003C0001F93CF93DF931F92CDB7DEB77C0100EF71
:1003D00010E0F801678141E086810E944504F80140
:1003E000618541E080850E944504F801638541E014
:1003F00082850E944504F801658541E084850E945C
:10040000450400E0D12C42C0E0EFF0E06781600FCE
:1004100040E086810E94450410E02DC0E0EFF0E04E
:100420006181610FAE014F5F5F4F80810E94C00408
:10043000898181111FC00AC0E0EFF0E06181610F86
:10044000AE014F5F5F4F80810E94C0048981882385
:1004500099F3802F90E0FC01EE0FFF1FE80FF91FCA
:10046000E654FF4FE10FF11D8081F7018083DD2409
:10047000D39403C01F5F133088F2E0EFF0E0678190
:10048000600F41E086810E9445040F5F043008F44C
:10049000BBCFF1E0DF1619F08EE4F701808380E036
:1004A0000F90DF91CF911F910F91FF90EF90DF9010
:1004B0000895CF93DF93C9EDD0E06E8941E08D8937
:1004C0000E94450482E08A95F1F700C06E8940E001
:1004D0008D890E944504DF91CF9108951F93CF939A
:1004E000DF93EC01162F6E8940E08D890E94450450
:1004F0006A8940E089890E9445046C8940E08B89C3
:100500000E9445048091D800811148C06889412F1C
:10051000441F4427441F8F850E9445046E8516FBA7
:10052000442740F98D850E9445046C8515FB4427BE
:1005300040F98B850E9445046A8514FB442740F9E5
:1005400089850E9445040E9459028FE697E1019730
:10055000F1F700C00000688913FB442740F98F853C
:100560000E9445046E8512FB442740F98D850E9448
:1005700045046C8511FB442740F98B850E94450496
:100580006A85412F417089850E9445040E94590265
:100590008FE697E10197F1F700C00000DF91CF915E
:1005A0001F9108951F93CF93DF93EC016A8941E077
:1005B00089890E940B04182F6C8941E08B890E9465
:1005C0000B04182B6E8941E08D890E940B04182BB7
:1005D0008881882319F0813099F177C062E089ED34
:1005E00090E00E946E0268E289ED90E00E946E0247
:1005F0006CE089ED90E00E946E0266E089ED90E08B
:100600000E946E0261E089ED90E00E946E026A85B0
:1006100041E089850E940B04182B6C8541E08B8595
:100620000E940B04182B6E8541E08D850E940B04FF
:10063000182B688941E08F850E940B04812B46C0EE
:1006400068E389ED90E00E946E026CE089ED90E035
:100650000E946E0266E089ED90E00E946E0261E009
:1006600089ED90E00E946E026A8141E089810E94DA
:100670000B04182B6C8141E08B810E940B04182B1A
:100680006E8141E08D810E940B04182B688541E04A
:100690008F810E940B04182B6A8541E089850E9496
:1006A0000B04182B6C8541E08B850E940B04182BE2
:1006B0006E8541E08D850E940B04182B688941E00E
:1006C0008F850E940B04812B01C085E09881909357
:1006D000D800DF91CF911F91089561E089ED90E0FE
:1006E0000E946E0280E00895813019F0823039F066
:1006F0000BC0615889ED90E00E946E0205C0615404
:1007000089ED90E00E946E0280E008951F93CF93E0
:10071000DF93EC01162F6E8940E08D890E9445041D
:100720006A8941E089890E9445046C8940E08B898F
:100730000E9445048091D800811148C06889412FEA
:10074000441F4427441F8F850E9445046E8516FB75
:10075000442740F98D850E9445046C8515FB44278C
:1007600040F98B850E9445046A8514FB442740F9B3
:1007700089850E9445040E9459028FE697E10197FE
:10078000F1F700C00000688913FB442740F98F850A
:100790000E9445046E8512FB442740F98D850E9416
:1007A00045046C8511FB442740F98B850E94450464
:1007B0006A85412F417089850E9445040E94590233
:1007C0008FE697E10197F1F700C00000DF91CF912C
:1007D0001F9108950F931F93CF938C01C0E005C024
:1007E00089ED90E00E948603CF5FF801EC0FF11DC8
:1007F00060816111F5CF80E0CF911F910F91089535
:1008000080E0089580E0089580E008950E945D01F1
:1008100080E090E008956830A0F581110BC08AB3A4
:1008200050E002C0440F551F6A95E2F7482B4ABBBF
:1008300080E00895813059F487B350E002C0440F3E
:10084000551F6A95E2F7482B47BB80E00895823038
:1008500059F484B350E002C0440F551F6A95E2F783
:10086000482B44BB80E00895833069F481B350E0A5
:1008700002C0440F551F6A95E2F7482B41BB80E048
:10088000089581E0089582E00895683008F074C00A
:1008900081111BC0413061F42BB381E090E002C0B4
:1008A000880F991F6A95E2F7822B8BBB80E0089531
:1008B0002BB381E090E002C0880F991F6A95E2F7A0
:1008C000809582238BBB80E008958130D9F441303C
:1008D00061F428B381E090E002C0880F991F6A9507
:1008E000E2F7822B88BB80E0089528B381E090E096
:1008F00002C0880F991F6A95E2F78095822388BB12
:1009000080E008958230D9F4413061F425B381E06C
:1009100090E002C0880F991F6A95E2F7822B85BB91
:1009200080E0089525B381E090E002C0880F991F10
:100930006A95E2F78095822385BB80E00895833035
:10094000E9F4413061F422B381E090E002C0880F05
:10095000991F6A95E2F7822B82BB80E0089522B34B
:1009600081E090E002C0880F991F6A95E2F78095B8
:10097000822382BB80E0089581E0089582E008959B
:10098000683008F064C0811117C079B381E090E04D
:100990009C01062E02C0220F331F0A94E2F7872F14
:1009A00090E08223932302C0969587956A95E2F79B
:1009B000FA01808380E008958130B9F476B381E054
:1009C00090E09C01062E02C0220F331F0A94E2F72A
:1009D000872F90E08223932302C0969587956A958E
:1009E000E2F7FA01808380E008958230B9F473B3AE
:1009F00081E090E09C01062E02C0220F331F0A9472
:100A0000E2F7872F90E08223932302C09695879583
:100A10006A95E2F7FA01808380E008958330C9F493
:100A200070B381E090E09C01062E02C0220F331FBC
:100A30000A94E2F7872F90E08223932302C09695D1
:100A400087956A95E2F7FA01808380E0089581E056
:100A5000089582E00895BB274A3031F4992322F4A7
:100A6000BDE2909581959F4F0C943705BB27FB0104
:100A70005527AA27880F991FAA1FA41710F0A41B97
:100A800083955051B9F7A05DAA3308F0A95DA193F1
:100A9000009779F7B111B1931192CB010C945005E5
:100AA000DC01FC01672F71917723E1F7329704C0D5
:100AB0007C916D9370836291AE17BF07C8F3089560
:040AC000F894FFCFD8
:100AC40057656C636F6D65004D696E3D3138004349
:100AD400757272656E742054656D70203D200054EB
:100AE400656D702076616C7565206973207265731D
:100AF4006574746C656420746F20323000746865AA
:100B0400206F7065726174696F6E206973206E6FF7
:100B14007420616C6C6F7765640031323334353620
:060B24003738392A3023A6
:00000001FF
