S017000041697220436F6E646974696F6E65722E7372656353
S11300000C942A000C9447000C9447000C9447006D
S11300100C9447000C9447000C9447000C94470040
S11300200C9447000C9447000C9447000C94470030
S11300300C9447000C9447000C9447000C94470020
S11300400C9447000C9447000C9447000C94470010
S11300500C94470011241FBECFE5D8E0DEBFCDBF0E
S113006010E0A0E6B0E0EEE8FCE002C005900D92DE
S1130070A63FB107D9F721E0A6EFB0E001C01D9279
S1130080AE32B207E1F70E94EB040C9445060C94DF
S113009000008091F7008F5F8093F7008EEF90E06F
S11300A00E94E9040895EF92FF920F931F93CF9358
S11300B0DF93EEEFF0E01082D1E0D48380EF90E0A4
S11300C09383828389E490E096838583CF010E94A1
S11300D0E704EBEFF0E087E08283D083D183CF01A4
S11300E00E94E504E9E0F1E010821186128613868D
S11300F0D4871586C2E0C68717860F2EF3E0EF2E4D
S1130100F02DE08A118A6894FF24F2F8F28A138AA7
S113011005E0048B158A16E0168BCF010E946D034F
S1130120E0E2F1E0C683E782C087F186C2870387F5
S1130130C4871587C0831182C283D383C483C583D4
S1130140CF010E943302E9EFF0E0D1831082CF01A6
S11301500E94FA01DF91CF911F910F91FF90EF90D0
S113016008950E94080461E081E00E940E0488E67C
S113017090E00E9487041092F7002FEF89E698E13F
S1130180215080409040E1F700C000000E94080424
S113019061E081E00E940E0480E790E00E94870401
S11301A061E082E00E940E048AEC90E00E948704E1
S11301B01092F7002FEF89E698E12150804090409B
S11301C0E1F700C0000084E18093F60081E08093B1
S11301D0F8000895CF93DF9300D01F92CDB7DEB718
S11301E019820E94080461E081E00E940E0480E804
S11301F090E00E9487041092F7002FEF84E39CE0C4
S1130200215080409040E1F700C000000E940804A3
S113021061E081E00E940E0481E990E00E9487047D
S11302206BE081E00E940E0488E990E00E9487045C
S11302308091F6004AE0BE016E5F7F4F90E00E941D
S1130240100668E081E00E940E04CE0102960E942E
S11302508704CE0101960E9470028981813341F4A2
S11302608091F600833220F78F5F8093F600E0CF11
S1130270823341F48091F6008331D0F2815080932F
S1130280F600D6CF8333A1F682E08093F8000F9076
S11302900F900F90DF91CF910895CF93DF9300D00B
S11302A01F92CDB7DEB719820E94080461E081E095
S11302B00E940E048FE990E00E94870478C04AE00F
S11302C0BE016E5F7F4F84E190E00E94100662E001
S11302D082E00E940E04CE0102960E94870480915F
S11302E0F600843128F483E00E94A1040E941502E0
S11302F0CE0101960E9470028981853331F08E34DB
S113030009F455C0843369F526C00E94240284E1AF
S11303108093F6000E94080461E081E00E940E04CC
S11303208FEA90E00E94870461E082E00E940E045C
S11303308DEB90E00E9487041092F7002FEF89E67E
S113034098E1215080409040E1F700C0000081E036
S11303508093F8002CC00E94240281E08093F8006E
S113036026C082BB0E94080461E081E00E940E0462
S11303708DEC90E00E94870461E082E00E940E040C
S11303808EED90E00E9487042FEF89E698E12150DA
S113039080409040E1F700C000000E94080461E042
S11303A081E00E940E048FE990E00E94870480910E
S11303B0F800823009F483CF0F900F900F90DF91F3
S11303C0CF9108950E94530002C00E94B100809111
S11303D0F800811103C0F9CF0E94EA008091F8006F
S11303E08130D1F302C00E944D018091F800823027
S11303F0D1F3EDCFCF93DF93009799F0EC016881AF
S113040041E089810E94F00481110CC08981E6E0F9
S1130410F1E081838881808381E08093050180E01D
S113042001C086E0DF91CF91089580910501882372
S113043049F0E6E0F1E0608141E081810E942A0513
S113044080E0089586E0089580910501882349F0AD
S1130450E6E0F1E0608140E081810E942A0580E0CD
S1130460089586E00895CF93DF930097A9F1EC01F6
S1130470698140E088810E94F0046B8140E08A81B8
S11304800E94F0046D8140E08C810E94F004698137
S113049041E088810E942A056B8141E08A810E94A3
S11304A02A056D8141E08C810E942A056F8141E01B
S11304B08E810E94F004698541E088850E94F004E1
S11304C06B8541E08A850E94F0046D8541E08C854E
S11304D00E94F00480E001C087E0DF91CF9108958D
S11304E0DF92EF92FF920F931F93CF93DF931F92AC
S11304F0CDB7DEB77C0100E211E0F801678141E08D
S113050086810E942A05F801618541E080850E9468
S11305102A05F801638541E082850E942A05F801D5
S1130520658541E084850E942A0500E0D12C42C003
S1130530E0E2F1E06781600F40E086810E942A05D5
S113054010E02DC0E0E2F1E06181610FAE014F5F88
S11305505F4F80810E94A505898181111FC00AC057
S1130560E0E2F1E06181610FAE014F5F5F4F808196
S11305700E94A5058981882399F3802F90E0FC01CE
S1130580EE0FFF1FE80FF91FE651FF4FE10FF11DBA
S11305908081F7018083DD24D39403C01F5F13306F
S11305A088F2E0E2F1E06781600F41E086810E9419
S11305B02A050F5F043008F4BBCFF1E0DF1619F011
S11305C08EE4F701808380E00F90DF91CF911F913B
S11305D00F91FF90EF90DF900895CF93DF93C9E0E0
S11305E0D1E06E8941E08D890E942A0582E08A95D6
S11305F0F1F700C06E8940E08D890E942A05DF91E1
S1130600CF9108951F93CF93DF93EC01162F6E893A
S113061040E08D890E942A056A8940E089890E9408
S11306202A056C8940E08B890E942A058091080183
S113063081114AC06889412F441F4427441F8F8574
S11306400E942A056E8516FB442740F98D850E9479
S11306502A056C8515FB442740F98B850E942A05E1
S11306606A8514FB442740F989850E942A050E9463
S1130670ED028FE697E10197F1F700C00000688969
S113068013FB442740F98F850E942A056E8512FBCF
S1130690442740F98D850E942A056C8511FB442767
S11306A040F98B850E942A056A85412F417089850E
S11306B00E942A050E94ED028FE697E10197F1F767
S11306C000C0000080E005C0813011F480E001C06A
S11306D085E0DF91CF911F9108951F93CF93DF930E
S11306E0EC016A8941E089890E94F004182F6C8921
S11306F041E08B890E94F004182B6E8941E08D89BA
S11307000E94F004182B8881882319F0813099F114
S113071077C062E089E091E00E94020368E289E028
S113072091E00E9402036CE089E091E00E940203E0
S113073066E089E091E00E94020361E089E091E0D3
S11307400E9402036A8541E089850E94F004182B07
S11307506C8541E08B850E94F004182B6E8541E086
S11307608D850E94F004182B688941E08F850E94D2
S1130770F004812B46C068E389E091E00E94020303
S11307806CE089E091E00E94020366E089E091E078
S11307900E94020361E089E091E00E9402036A8101
S11307A041E089810E94F004182B6C8141E08B8127
S11307B00E94F004182B6E8141E08D810E94F004A8
S11307C0182B688541E08F810E94F004182B6A85FC
S11307D041E089850E94F004182B6C8541E08B85EB
S11307E00E94F004182B6E8541E08D850E94F00470
S11307F0182B688941E08F850E94F004812B01C089
S113080085E0988190930801DF91CF911F9108951D
S113081061E089E091E00E9402030895813019F0BB
S1130820823041F00EC0615889E091E00E940203D9
S113083080E00895615489E091E00E94020380E021
S1130840089585E008951F93CF93DF93EC01162F4D
S11308506E8940E08D890E942A056A8941E0898970
S11308600E942A056C8940E08B890E942A058091A8
S11308700801811148C06889412F441F4427441F3F
S11308808F850E942A056E8516FB442740F98D85C5
S11308900E942A056C8515FB442740F98B850E942C
S11308A02A056A8514FB442740F989850E942A0594
S11308B00E94ED028FE697E10197F1F700C0000076
S11308C0688913FB442740F98F850E942A056E85A9
S11308D012FB442740F98D850E942A056C8511FB83
S11308E0442740F98B850E942A056A85412F41706F
S11308F089850E942A050E94ED028FE697E10197FF
S1130900F1F700C00000DF91CF911F9108950F937C
S11309101F93CF93009781F08C01C0E005C089E05C
S113092091E00E942304CF5FF801EC0FF11D608178
S11309306111F5CF80E001C085E0CF911F910F9147
S113094008951F93CF93DF93CDB7DEB728970FB6E3
S1130950F894DEBF0FBECDBF98E0E0E6F0E0DE0124
S1130960119601900D929A95E1F7682F70E0685FF7
S11309707F4F660F660F660F89E091E00E940203C5
S113098010E00CC0E1E0F0E0EC0FFD1FE10FF11D01
S1130990608189E091E00E9423041F5F183090F386
S11309A060EC89E091E00E94020363E089E091E059
S11309B00E94230480E028960FB6F894DEBF0FBE91
S11309C0CDBFDF91CF911F91089580E0089580E01D
S11309D0089580E008950E94E20180E090E0089587
S11309E06830A0F581110BC08AB350E002C0440FF7
S11309F0551F6A95E2F7482B4ABB80E00895813081
S1130A0059F487B350E002C0440F551F6A95E2F7CA
S1130A10482B47BB80E00895823059F484B350E0FA
S1130A2002C0440F551F6A95E2F7482B44BB80E08F
S1130A300895833069F481B350E002C0440F551F18
S1130A406A95E2F7482B41BB80E0089581E0089560
S1130A5082E00895683008F074C081111BC04130F1
S1130A6061F42BB381E090E002C0880F991F6A956E
S1130A70E2F7822B8BBB80E008952BB381E090E0FA
S1130A8002C0880F991F6A95E2F7809582238BBB79
S1130A9080E008958130D9F4413061F428B381E0D5
S1130AA090E002C0880F991F6A95E2F7822B88BBF9
S1130AB080E0089528B381E090E002C0880F991F78
S1130AC06A95E2F78095822388BB80E0089582309E
S1130AD0D9F4413061F425B381E090E002C0880F7D
S1130AE0991F6A95E2F7822B85BB80E0089525B3B0
S1130AF081E090E002C0880F991F6A95E2F7809523
S1130B00822385BB80E008958330E9F4413061F4A9
S1130B1022B381E090E002C0880F991F6A95E2F742
S1130B20822B82BB80E0089522B381E090E002C072
S1130B30880F991F6A95E2F78095822382BB80E033
S1130B40089581E0089582E00895683008F064C053
S1130B50811117C079B381E090E09C01062E02C098
S1130B60220F331F0A94E2F7872F90E08223932306
S1130B7002C0969587956A95E2F7FA01808380E032
S1130B8008958130B9F476B381E090E09C01062E9B
S1130B9002C0220F331F0A94E2F7872F90E08223CA
S1130BA0932302C0969587956A95E2F7FA018083AC
S1130BB080E008958230B9F473B381E090E09C0141
S1130BC0062E02C0220F331F0A94E2F7872F90E00B
S1130BD08223932302C0969587956A95E2F7FA01DA
S1130BE0808380E008958330C9F470B381E090E09D
S1130BF09C01062E02C0220F331F0A94E2F7872FAE
S1130C0090E08223932302C0969587956A95E2F734
S1130C10FA01808380E0089581E0089582E00895D8
S1130C20BB274A3031F4992322F4BDE29095819593
S1130C309F4F0C941C06BB27FB015527AA27880F3E
S1130C40991FAA1FA41710F0A41B83955051B9F73C
S1130C50A05DAA3308F0A95DA193009779F7B111BB
S1130C60B1931192CB010C943506DC01FC01672F82
S1130C7071917723E1F7329704C07C916D9370836F
S1110C806291AE17BF07C8F30895F894FFCF32
S1130C8E040E0E0E1F00040057656C636F6D650035
S1130C9E64656661756C742054656D7020697300AB
S1130CAE53657420496E697469616C2054656D7066
S1130CBE004D696E3D3138004D61783D333500434A
S1130CCE757272656E742054656D70203D200054EB
S1130CDE656D702076616C7565206973007265733D
S1130CEE6574746C656420746F20323000746865AA
S1130CFE206F7065726174696F6E206973006E6F18
S1130D0E7420616C6C6F7765640031323334353620
S1090D1E3738392A3023A6
S9030000FC
